:100000000C942F030C94F3280C9476030C94760331
:100010000C9476030C9476030C9476030C9476037C
:100020000C9476030C9476030C94E71A0C94231A20
:100030000C944B230C9476030C9476030C94760367
:100040000C9476030C9476030C9476030C9476034C
:100050000C9476030C94BC1B0C9476030C947603DE
:100060000C9476030C9476030C9476030C9476032C
:100070000C9476030C9476030C9476030C9476031C
:100080000C9476030C9476030C9476030C9476030C
:100090000C9476030C9476030C9476030C947603FC
:1000A0000C9476030C9476030C9476039A079A07C3
:1000B000D407D4072B08D209D209D2094708250949
:1000C000360936093E186518FB196518FB19AD1875
:1000D000D018FB19BF19D219171D171D2A1D2A1D6B
:1000E000201D2A1D2A1D2A1D171D171D251D2A1D0D
:1000F0002A1D251D00047F3F1F64321464321478CA
:100100003C1E1E140A0505010980A1018503190181
:100110002AB700150126B700950175108100C005AA
:100120000C0901A101850419012AA002150126A0CC
:1001300002950175108100C005010906A10105079E
:1001400019E029E71500250195087501810295013F
:10015000750881010507190029FF150026FF009584
:100160000675088100050819012905950575019195
:1001700002950175039101C009023B00020100A034
:10018000FA09040000010301010009211101000125
:100190002240000705810308000A09040100010349
:1001A000000000092111010001223200070582032D
:1001B00020000A120100020000000810CB56420085
:1001C000040102000126034B00650065006200691E
:1001D000006F002000490072006900730020005287
:1001E00000650076002E002000340000000E034B56
:1001F0000065006500620069006F000000040309EB
:100200000435001E001F002000210022002B421494
:10021000001A000800150017002941040016000705
:100220000009000A00D85C1D611B64060019000566
:100230000000000000E3002A002C0035002E0027FB
:100240000026002500240023002D42130012000C7C
:100250000018001C00344133000F000E000D000B8D
:1002600000D95C38713774360010001100000000AE
:1002700000E300125028004C001050000000000065
:100280000000000000000025022E0033023102248D
:100290000200003100350035022D02000000000090
:1002A00000000000000000000000000000E300006B
:1002B000002C000000000000000000000000000012
:1002C000002D002E022E0034023400000000003009
:1002D000002F00270226020000000000000000306E
:1002E000022F02000000000000E30012504C00004A
:1002F0000010500000000000000000000014501426
:100300000000000801000000000000040100000ED1
:100310000400000000E10000007B007C007D000084
:100320000000000000E3002A002C00000000000094
:10033000004A004D000000000000004F044B004E3A
:10034000005004000000004F005200510050000017
:1003500000E50000000000000000000000000000B8
:1003600000135001002800000010500000000000A1
:1003700000000000000000F100ED00F200000000AD
:10038000000000EF00EE00F000000000000000E0C0
:1003900000E20000000000000000000000E3000098
:1003A00000F100000000000000000000000000005C
:1003B000000000F200A900AA00F10000000000F017
:1003C00000ED00EE00EF0000000000E400E6000099
:1003D000000000000000000000E3001250F20000E6
:1003E00000105000000000000000000000010000AC
:1003F00000000000000000000000000000000000FD
:1004000000000000000000000000000000000000EC
:1004100000000000000000000000000000E500E314
:1004200000380025020000000000005700260025CB
:10043000002400000000002E002300220021000004
:10044000000000270020001F001E00000000000028
:100450000000001250000000002223252628292A2F
:100460002C2D2F3032333536383A3B3D3E40424317
:100470004547494A4C4E5051535557595A5C5E6056
:1004800062646668696B6D6F71737577797B7D7F68
:1004900081838587898A8C8E90929496989A9C9E67
:1004A0009FA1A3A5A7A8AAACAEAFB1B3B4B6B8B983
:1004B000BBBCBEBFC1C2C3C5C6C7C9CACBCCCDCEEB
:1004C000D0D1D2D2D3D4D5D6D7D7D8D9D9DADADBCE
:1004D000DBDBDCDCDCDCDCDDDDDDDDDCDCDCDCDC5A
:1004E000DBDBDBDADAD9D9D8D7D7D6D5D4D3D2D299
:1004F000D1D0CECDCCCBCAC9C7C6C5C3C2C1BFBE81
:10050000BCBBB9B8B6B4B3B1AFAEACAAA8A7A5A3EB
:10051000A19F9E9C9A98969492908E8C8A898785AA
:1005200083817F7D7B79777573716F6D6B69686689
:100530006462605E5C5A5957555351504E4C4A495B
:1005400047454342403E3D3B3A3836353332302F03
:100550002D2C2A2928262523220001010101010131
:10056000010101020202020202020202030303036A
:10057000030303030404040404040405050505053A
:1005800006060606060707070707080808080909F8
:1005900009090A0A0A0B0B0B0C0C0C0D0D0D0E0EA3
:1005A0000E0F0F0F10101111111212131314141536
:1005B0001516161717181819191A1A1B1B1C1D1DAA
:1005C0001E1E1F2020212222232424252626272800
:1005D00029292A2B2C2D2D2E2F3031323233343530
:1005E000363738393A3B3C3D3E3F40414243444533
:1005F000464748494A4C4D4E4F5051535455565812
:10060000595A5B5D5E5F616264656668696B6C6DBB
:100610006F7072737577787A7B7D7E808283858731
:10062000888A8C8E8F91939596989A9C9EA0A2A36F
:10063000A5A7A9ABADAFB1B3B5B7BABCBEC0C2C474
:10064000C6C9CBCDCFD1D4D6D8DBDDDFE2E4E7E934
:10065000EBEEF0F3F5F8FAFDFFFFAA7F5540112409
:100660001FBECFEFDAE0DEBFCDBF04B603FE27C06A
:100670008091280390912903A0912A03B0912B0324
:100680008730904BA740B04BD1F4109228031092C2
:10069000290310922A0310922B0314BE84B7877F7C
:1006A00084BF0FB6F894A89580916000886180930C
:1006B0006000109260000FBEE0E0F8E3099511E0E1
:1006C000A0E0B1E0E4E1F7E502C005900D92A63E9E
:1006D000B107D9F723E0A6EEB1E001C01D92A83220
:1006E000B207E1F70E940B120C94882B0C940000C7
:1006F0001F93CF93DF93CDB7DEB767970FB6F8940C
:10070000DEBF0FBECDBF4B8B5C8B6D8B7E8B8F8B1B
:1007100061111092F20186E09E01235F3F4FD901E3
:10072000E82F1D92EA95E9F795E0FE017396D9014D
:1007300001900D929A95E1F79C894E895F897B899A
:100740007D879E876F87598B488BF901DE0117964D
:1007500001900D928A95E1F7CE0107960E942E1D19
:1007600081113EC086E0FE013796DE0111960190B0
:100770000D928A95E1F7FF81E8856A857B85611591
:10078000710531F0EF3F31F481E0FF3F19F403C010
:1007900081E001C080E080FD23C02091B10230E003
:1007A000C9010196877099274091E20250E08417B1
:1007B000950779F1F983EA837D836C8396E0929FB4
:1007C000D001939FB00D1124AE54BD4FFE01319660
:1007D00001900D929A95E1F78093B1020E94171C47
:1007E00016E08091E2029091B1028917F9F0189F0A
:1007F000C00111248E549D4F0E942E1D8823B1F0FC
:100800008091E20290E00196877099278093E2023E
:10081000E8CF0E949F1F1092B1021092E202EBEA11
:10082000F2E086E0DF011D928A95E9F767960FB640
:10083000F894DEBF0FBECDBFDF91CF911F91089519
:100840008F929F92AF92BF92CF92DF92EF92FF92E0
:100850000F931F93CF93DF93CDB7DEB72A970FB6D1
:10086000F894DEBF0FBECDBFFC010081D180838133
:100870009481892B39F01FEFD11206C091E00F3F10
:1008800019F403C091E001C090E090FD7DC67F01A6
:1008900085E0DE01169601900D928A95E1F7F70149
:1008A00022818E819F81222349F00E948D1C182F66
:1008B000682F8E819F810E94FC1E03C00E94CF1E64
:1008C000182F2CE3129FF001112436E0D39EE00D87
:1008D000F11D1124E00FF11DEE0FFF1FEF5FFD4F23
:1008E00005911491F7018281882309F482C00E3B9F
:1008F000FCE51F07E1F058F40C3B3CE5130799F0C9
:100900000D3B9CE5190709F074C080E00DC0003C68
:10091000ECE51E0709F45DC008F442C0013C2CE57B
:100920001207A9F066C085E00E9407257AC280916F
:100930001303982F96959695969561F1915E990F70
:10094000990F990F8770892B8093130317C080919B
:100950001303282F2695269526952F5F2F71922F0A
:10096000990F990F990F8770892B80931303263065
:1009700018F087708093130380911303887F91E0B0
:1009800009F490E08091130390FB80F980931303A6
:100990000E9402258091130386958695869523C033
:1009A00020911303822F869586958695482F50E0D7
:1009B0004530510554F48F5F982F990F990F990F77
:1009C000822F8770892B809313038091130381609A
:1009D000DDCF8091130380FF09C08E7F80931303C6
:1009E0000E94022580E00E949D241BC20E942425B3
:1009F00018C2043F2CE5120749F406E221EE40EE4E
:100A000064EF7CE5C7010E94FB230BC2053F3CE578
:100A1000130708F049C1093D9CE5190731F407E2C5
:100A200025EE45EE69ED7CE5EDCF0A3DECE51E07D0
:100A300031F408E221E045EE6AED7CE5E3CF083DC4
:100A4000FCE51F0731F406E221EE41EE68ED7CE59E
:100A5000D9CF882309F45DC11092160302303CE51A
:100A6000130708F440C106318CE5180730F0C801BF
:100A70008B5F9C45099708F036C10E94310E909318
:100A800038028093370200319CE5190709F4C3C08E
:100A900008F041C00830FCE51F0709F49AC0F0F4E3
:100AA00004303CE5130709F487C068F402309CE584
:100AB000190709F477C003301C4509F0E5C080919F
:100AC0003702826076C00630FCE51F0709F46EC06D
:100AD00008F07BC08091370288606BC00C303CE529
:100AE000130709F485C068F40A309CE5190709F476
:100AF00074C008F079C00E949F1F809137028068FF
:100B000058C00E30FCE51F0709F476C008F07FC01E
:100B1000809137028BC00C3F3CE5130709F44FC0AE
:100B200018F503319CE5190709F47DC078F401310B
:100B3000FCE51F0709F473C002311C4509F0A4C08D
:100B40000E949F1F809137028F7733C005313CE5AB
:100B5000130709F472C008F486C00B3F1C4509F066
:100B600093C0809138023EC00115EDE51E0709F4DF
:100B70005FC058F40E3F2CE5120709F444C008F496
:100B80003FC08091380282602DC002308DE5180789
:100B900009F475C008F45DC003301D4509F074C048
:100BA00060E06EC080913702816003C0809137029F
:100BB00080618093370268C08091370211C08091B4
:100BC00038028260809338025FC080913702806271
:100BD000F0CF809137028064ECCF8091370288603B
:100BE0008460E7CF8160EECF809137028E7FE1CFC6
:100BF000809137028D7FDDCF80913702877FD9CFFB
:100C00008091380218C0809138028D7FDBCF8091AF
:100C100037028F7ECECF809137028F7DCACF8091F1
:100C200037028F7BC6CF80913702877F8B7FC1CF02
:100C3000809138028D7F8E7FC5CF8091370282FBF5
:100C4000222720F991E0922790FB82F990FB83F90B
:100C5000B0CF80913802982F909591708E7F892B1C
:100C600090FB81F9AFCF0E949F1F8091370287FBD5
:100C7000222720F991E0922790FB87F99ACF61E033
:100C80008EE090E00E94862A60913702109138022F
:100C900084E090E00E94862A612F82E290E00E9428
:100CA000862A0E949F1FBDC0063F2CE5120731F423
:100CB00006E221EE42EE66EF7CE5A4CE063F3CE57F
:100CC000130730F407E225EE44EE65EF7CE59ACE9B
:100CD000073F9CE5190709F0BCCE07E225EE46EE7A
:100CE00067EF7CE58FCE0631ECE51E0721F580919C
:100CF000F3018A7A91E009F490E09093E801882367
:100D000011F065E301C069E289EE91E00E94A5233C
:100D10000FC00631FCE51F0709F064C08091E801AF
:100D2000882309F47CC365E389EE91E00E9498234F
:100D30000E94C90E76C00B352DE5120709F44CC090
:100D400058F401158CE51807C1F00F3D1C4509F05A
:100D500099C00E94420E65C00C35EDE51E0709F4EE
:100D60003DC00D351D4509F08DC08091380282FBD4
:100D7000882780F991E0892732C00E949F1F0FEFDA
:100D800014E32CE0015010402040E1F700C00000C7
:100D900081E08093E00080E28093D8001092C90047
:100DA0008FE19EE40197F1F700C0000087E090EB2F
:100DB000DC018093280390932903A0932A03B09326
:100DC0002B039CE088E10FB6F894A895809360000F
:100DD0000FBE90936000FFCF81E001C080E00E94D1
:100DE000F60E50C08091F30182720D3CFCE51F07A6
:100DF00009F4ACC3A8F1023DFCE51F0709F4B5C333
:100E000008F43FC3053DFCE51F0709F4B4C308F42B
:100E10004BC3063D9CE5190709F4B2C30E351D45C9
:100E200089F58091E302877009F4AEC3F7018281EE
:100E3000882309F4A9C382E02A960FB6F894DEBF8E
:100E40000FBECDBFDF91CF911F910F91FF90EF901B
:100E5000DF90CF90BF90AF909F908F900C94571FD2
:100E6000073C3CE5130709F45DC308F0E8C2043C05
:100E7000ECE51E0709F44CC308F0D3C2033C1C4543
:100E800009F41DC3F70182810081D180882359F0C4
:100E9000802F9D2D0E948D1C182F682F802F9D2D37
:100EA0000E94FC1E05C0802F9D2D0E94CF1E182F72
:100EB0002CE3129FF001112436E0D39EE00DF11DCA
:100EC0001124E00FF11DEE0FFF1FEF5FFD4F859125
:100ED00094910E94A60C8C01982EF701B280A580F7
:100EE000A2943FE0A3228091E302877099F0BB2097
:100EF00089F0812F807F803421F080E2800F88305C
:100F000048F082E00E94571F8091E3028770DD2441
:100F1000D3948111D12CC12EC2949FE0C9228C2D73
:100F200090E08C30910508F03DC2FC01EA5AFF4F79
:100F30000C94222B812F807F1F70882311F0129533
:100F4000107FBB20B9F0112309F417C280E2800F93
:100F5000883010F0911006C08091F301182B109387
:100F6000F30105C08091F201182B1093F2010E9449
:100F7000C90E03C2802F0E94BF1F112309F412C2A1
:100F8000005E1095083010F0911006C08091F301BA
:100F900018231093F30105C08091F20118231093D8
:100FA000F2010E94C90EFEC1812F807F1F70803226
:100FB00011F01295107F992021F0F1E09F1601F1B8
:100FC0002EC0BB20A1F08091F401AA2071F001E0B5
:100FD000A0120BC0182B9091380292FDE3C1181794
:100FE00009F4E0C11093F401DDC1812B10C0AA20E7
:100FF00021F021E0A21609F4D5C10E94C30E27C03A
:10100000BB2041F035E03A1508F4CCC1812F0E9495
:10101000B51FC8C184E08A1508F4C4C118C0BB203C
:1010200049F0AA2099F3F701858180FFA6C18F704E
:101030008583ECCFAA2059F0093309F0B0C1FFEF46
:1010400017EE23E0F15010402040E1F7A6C1812FB8
:101050000E94AA1FA7C1812F86958695837019F0DB
:10106000813059F09FC1BB2019F0C801937002C0B4
:1010700080E090E00E94D5239BC1BB2019F0C801FD
:10108000937002C080E090E00E94BF2391C1812F45
:10109000837009F069C0B11089C1902F929596951F
:1010A0009770990F990F802F8F70882E912CA12CFB
:1010B000B12C092E04C0880C991CAA1CBB1C0A94D4
:1010C000D2F704FF12C04FE050E060E070E004C0CF
:1010D000440F551F661F771F9A95D2F7DB01CA018F
:1010E00080959095A095B09503C080E090E0DC01DC
:1010F00016951695412F4370423019F1C8F40091AE
:10110000F5011091F6012091F7013091F80141307D
:1011100059F088299929AA29BB29BC01CD0160234E
:101120007123822393230AC0802A912AA22AB32AF8
:10113000BC01CD01682979298A299B290E94951F24
:1011400035C188299929AA29BB290091F501109157
:10115000F6012091F7013091F801BC01CD01602723
:10116000712782279327EACFBB2019F0812F817046
:1011700001C08695882309F419C1902F9295969500
:101180009770990F990F802F8F70882E912CA12C1A
:10119000B12C092E04C0880C991CAA1CBB1C0A94F3
:1011A000D2F704FF12C04FE050E060E070E004C0EE
:1011B000440F551F661F771F9A95D2F7DB01CA01AE
:1011C00080959095A095B09503C080E090E0DC01FB
:1011D00016951695412F43704230D9F068F500916D
:1011E00033021091340220913502309136024130A1
:1011F00059F088299929AA29BB29BC01CD0160236E
:101200007123822393231EC0802A912AA22AB32A03
:1012100013C088299929AA29BB290091330210916A
:1012200034022091350230913602BC01CD01602795
:1012300071278227932706C0BC01CD01682979292F
:101240008A299B290E94281FB1C01F70BB2039F03A
:10125000812F0E94741F802F0E94B51FA7C0802F6E
:101260000E94AA1F812F0E94321FA0C0802F32EF40
:10127000931609F440C0391538F090EF991661F0D3
:10128000E1EF9E1699F174C0F3EF9F16D9F124EFA8
:10129000921609F44EC06CC0BB2019F134E03A1527
:1012A00008F480C01F7181E090E0A0E0B0E0AC01E4
:1012B000BD0104C0440F551F661F771F1A95D2F752
:1012C0008091330290913402A0913502B0913602A0
:1012D0008A019B01082719272A273B27C901B80142
:1012E00025C025E02A1508F45DC0DCCFBB2029F01D
:1012F000812F8F7130C0BB20D9F3812F8F710E9455
:10130000321F50C0BB2079F01F7181E090E0A0E057
:10131000B0E0BC01CD0104C0660F771F881F991F84
:101320001A95D2F703C060E070E0CB010E94281F3D
:1013300039C0BB2099F01F71812F0E94741F8091CA
:10134000380282FD07C038E0139FC001112483607A
:101350008093E302812F0E94741F24C081E00E94C9
:10136000571F81E08A15F0F482E00E94571F1AC0CF
:10137000BB2039F0AA2009F4BBCF802F0E941B208C
:1013800011C0AA2009F4B9CF893349F49FEFE7EEE1
:10139000F3E09150E040F040E1F700C00000802F02
:1013A0000E94BF1F88EF8C0D843010F40E94EB2345
:1013B000DD20A9F08091E30280FD11C0F7011282C7
:1013C0008595859585950E94741FC7010E9420040C
:1013D0008091E3028595859585950E94321F85E071
:1013E000F701DE01119601900D928A95E1F789814E
:1013F0009A810E94CF1E9A810CE3809FF0011124F4
:1014000016E0919FE00DF11D11248981E80FF11D77
:10141000EE0FFF1FEF5FFD4F85919491B5C069E21C
:1014200083CC053C3CE5130709F477C0063C1C451A
:1014300009F028CD4AEE57E263EF77E28BC00A3C11
:10144000ECE51E0709F478C070F4083C2CE512079F
:1014500009F46DC0093C1C4509F014CD4EED57E26E
:1014600062ED77E277C00B3C9CE5190709F469C08F
:101470000C3C1C4509F006CD4FE256E260E476E2F2
:1014800069C00F3C3CE5130709F469C008F465C066
:10149000003D9CE5190709F465C0013D1C4509F0B4
:1014A000F1CC6EE089E069C0033D3CE5130709F427
:1014B0005FC0043D1C4509F0E5CC88E162C0809125
:1014C0000E0380FF20C08E7F80930E0360910E0379
:1014D00070910F0380911003909111030E941D26BB
:1014E0000E9481258091E60281608093E602FFEFF1
:1014F00000E712E0F15000401040E1F700C00000AA
:101500000E94A3258ECC816080930E03869539C0FE
:101510004FE358E268E478E21DC048E458E26FE324
:1015200078E218C043EF57E26AEE77E213C042ED6B
:1015300057E26EED77E20EC04AEB57E266EC77E2D7
:1015400009C046EC57E26AEB77E204C040E456E299
:101550006FE276E20E947B2564CC81E012C065E0F8
:1015600082E00BC068E086E008C064E18FE005C05F
:1015700067E185E102C062E289E10E946A2551CCFF
:1015800083E20E943C284DCC2A960FB6F894DEBF29
:101590000FBECDBFDF91CF911F910F91FF90EF90C4
:1015A000DF90CF90BF90AF909F908F90089580E094
:1015B00008959091370292FF0DC0282F287128308E
:1015C00019F4877F846006C0282F2471243011F419
:1015D0008B7F886093FF0DC0282F2871283119F464
:1015E000877E846106C0282F2471243111F48B7EFC
:1015F00088612091380220FF0DC0382F38713830B3
:1016000019F4877F816006C0382F3171313011F4B1
:101610008E7F886021FF0DC0282F2871283119F492
:10162000877E816106C0282F2171213111F48E7EC1
:10163000886194FD877E08958F929F92AF92BF92AA
:10164000CF92DF92EF92FF920F931F93CF93DF938E
:10165000FB0180809180A280B3809FB7F894C090F6
:101660006502D0906602E0906702F09068029FBF2A
:10167000C818D908EA08FB08F4E6CF16D104E1043B
:10168000F10410F4442351F17B01C82F880FDD0BC6
:1016900001151105A9F08AE08C9FF0018D9FF00DD6
:1016A0001124E050FF4F838194818F5E9D4F4281D2
:1016B00050E00417150708F4A801B9010E947F2B18
:1016C000CE010E94BA29892B11F080E008C00E9447
:1016D000F11BF701608371838283938381E0DF9143
:1016E000CF911F910F91FF90EF90DF90CF90BF901F
:1016F000AF909F908F9008957F928F929F92AF921C
:10170000BF92CF92DF92EF92FF920F931F93CF93EE
:10171000DF931F92CDB7DEB7762E4A0159016801DB
:10172000082F880F110BC8010E94BA29892B09F0D4
:101730007EC08AE0809FF001819FF00D1124E0506F
:10174000FF4F458150E04115510511F041E050E057
:101750008AE0809FF001819FF00D1124E050FF4F3F
:10176000668177816F5E7D4FCE0101960E947F2B4F
:10177000F40140815181628173812FB7F894809187
:10178000650290916602A0916702B09168022FBF36
:10179000841B950BA60BB70B84369105A105B105EB
:1017A00040F4B701C6010E9486249981891709F483
:1017B00040C0072D770C110BC8010E94BA29892B54
:1017C00009F5E114F10401F18AE0809FF001819FA5
:1017D000F00D1124E050FF4F458150E0E416F5066E
:1017E00008F4A7018AE0809FF001819FF00D112489
:1017F000E050FF4F668177816F5E7D4FC5010E948B
:101800007F2B02C010E001C011E0B701C6010E94A9
:10181000862491E02981281390E0192381F00E9409
:10182000F11BF401608371838283938308C010E00D
:1018300001C011E0A701B601C5010E947F2B812FD5
:101840000F90DF91CF911F910F91FF90EF90DF905C
:10185000CF90BF90AF909F908F907F900895CF9240
:10186000DF92EF92FF920F931F93CF93DF9300D0FD
:1018700000D01F92CDB7DEB76B0185E0E82EF12CCA
:1018800002E112E09E012F5F3F4F48E052E061E02D
:1018900080E00E947C0B882349F095E0FE013196A0
:1018A000A3E0B2E001900D929A95E1F795E0E3E0B4
:1018B000F2E0D60101900D929A95E1F70F900F900A
:1018C0000F900F900F90DF91CF911F910F91FF908C
:1018D000EF90DF90CF90089580910202811118C09F
:1018E0008091D80080618093D8008AE18A95F1F7D1
:1018F00000C08091D90080FD02C082E001C081E07B
:1019000080930202823021F40E94671A10927902B9
:1019100081E090910202913009F080E00895F894FE
:10192000E82FE295EF70F0E031A1282F2F7081E0D1
:1019300090E001C0880F2A95EAF7982F909593239D
:1019400091A392A1892B82A378940895CF93DF93DA
:101950008238910569F1B0F48133910509F46FC0C3
:1019600048F48932910509F465C08A32910509F479
:101970006BC08AC08533910509F457C0893391053E
:10198000B9F082C0833E910571F138F4803E910533
:10199000B1F0823E910511F177C0863E9105B9F113
:1019A000873E9105C9F1843E910509F06DC024C0C0
:1019B0002091370220FD53C021FD51C065C08091A8
:1019C000370280FD46C08091380280FF48C0809178
:1019D000370284FD3FC183EE90E03EC18091370223
:1019E00082FF3AC0F4CF8091370282FD35C08091EA
:1019F000380280FD34C0EBCF8091380281FF35C0C2
:101A00008091370284FD26C187EE90E025C1809148
:101A1000370283FF27C0F4CF8091370283FD22C0B5
:101A20008091380281FD21C0EBCF8091370285FD86
:101A30001FC021C08091370285FD1DC019C0809153
:101A4000370286FD1BC01DC08091370286FD19C07C
:101A500015C089E390E000C182EE90E0FDC080EE09
:101A600090E0FAC086EE90E0F7C084EE90E0F4C01B
:101A700089E290E0F1C085E390E0EEC08AE290E078
:101A8000EBC081E390E0E8C0811532E5930708F0F0
:101A900069C0811541E5940728F0982F8827816F48
:101AA000906ADAC0883E910568F5803E910508F09D
:101AB000D3C0883A9105B8F4853A910548F0855A23
:101AC000E82FF0E0E358FE4F808190E09064C4C0BE
:101AD0008130910509F4BBC008F4BCC08430910585
:101AE00008F4B8C0B9C08F3B910508F0B3C0885A5C
:101AF000E82FF0E0EE0FFF1FE058FE4F808191814C
:101B00009464AAC0811520E59207F0F09C0174E06E
:101B1000369527957A95E1F7922F9370482F437069
:101B200021E030E002C0220F331F4A95E2F73C6803
:101B3000392B8F70982F9695969540E2949FC0010F
:101B40001124822B932B88C0811530E4930718F061
:101B50009F70906A81C09C013A9521153F4108F41D
:101B60007BC078C0EC01C11586E5D807E8F5C11542
:101B700025E5D20748F08C2F0E94D90A8F7190E09A
:101B8000982F8827906268C0C11534E5D30728F0E4
:101B90009C2F8827846F906A5FC0AE0143705527E1
:101BA0002C2F26952695C115D34578F481E090E039
:101BB00002C0880F991F4A95E2F740E2249F9001E6
:101BC0001124822B932B9C6847C081E090E002C0D7
:101BD000880F991F4A95E2F740E2249F9001112453
:101BE000822B932B9A6838C0C1152AE5D207F8F4E6
:101BF000C11539E5D30790F08C2F8F700E94D90A58
:101C000094E0D695C7959A95E1F7CF70D0E0DC2F98
:101C1000CC27D0699E01282BC9011EC0C11548E5FB
:101C2000D407C0F09C2F8827806F906A15C0CE0122
:101C300090568115904270F48D2F8F710E94D90AB1
:101C4000282F2F71CE0199279062922B05C081E039
:101C500090E002C080E090E0DF91CF9108950C9475
:101C6000F11BCF9384E090E00E94722AC82F82E299
:101C700090E00E94722A2C2F30E0A901582BCA0153
:101C8000CF91089569EE7EEF80E090E00E94A42A53
:101C900060E082E090E00E94862A60E083E090E0CD
:101CA0000E94862A1092F5011092F6011092F70117
:101CB0001092F80160E084E090E00E94862A60E0E3
:101CC00082E290E00E94862A60E085E090E00E9437
:101CD000862A60E086E090E00E94862A6FEF87E027
:101CE00090E00E94862A40E050E0BA0188E090E04F
:101CF0000E94982A60E08DE090E00E94862A40E0F1
:101D000050E0BA0188E190E00E94982A60E087E103
:101D100090E00E94862A40E050E0BA018CE190E019
:101D20000E94982A60E070E080E290E00E94A42A7D
:101D300040E050E0BA0188E190E00E94982A0E94B9
:101D4000242583E00E940725EEE0F3E08081816096
:101D5000808386950E943C2821E04FEF6FEF80E062
:101D60000E9418278BE00E943C2840E050E0BA0116
:101D70008FE090E00E94982A40E050E0BA0183E1B1
:101D800090E00C94982A8091F40181111092F40152
:101D900008959091F3018091F201892B2091F10136
:101DA000982F922B9093E9018091F401882389F078
:101DB000892B8093E901EBEEF1E097E080E0915010
:101DC00029F021912223D9F38F5FF9CF81110E944D
:101DD000C30EE0911903F0911A03309731F002809D
:101DE000F381E02D89EE91E009940895CF93C0919D
:101DF0003802C2FB992790F9981781F080FBC2F94D
:101E0000C09338026091370284E090E00E94862AF5
:101E10006C2F82E290E0CF910C94862ACF910895A6
:101E20009F92AF92BF92CF92DF92EF92FF920F9369
:101E30001F93CF93DF93CDB7DEB72F970FB6F894EC
:101E4000DEBF0FBECDBF9E012F5F3F4F79018AE0FD
:101E5000D9011D928A95E9F70CE411E05901CC24CF
:101E6000C394D12CF80180818F3F09F447C0F894C6
:101E7000E82FE295EF70F0E021A18F70A60102C07B
:101E8000440F551F8A95E2F7CA01922F982B91A310
:101E900092A18095892382A3789400C0E6E4F1E0C2
:101EA00020E030E0912C41914F3FB1F0A42FA2955A
:101EB000AF70B0E090968C9190E04F7002C0959515
:101EC00087954A95E2F780FD07C08C2D022E01C050
:101ED000880F0A94EAF701C080E0982A2F5F3F4FED
:101EE0002630310501F7D8018C918F3F11F00E9407
:101EF0008F0CB0EABA95F1F7F50190820F5F1F4F92
:101F0000FFEFAF1ABF0A21E00135120709F0AACF8F
:101F10004AE050E0B70189E392E00E94722B8C0105
:101F2000892B41F08AE0F701A9E3B2E001900D921C
:101F30008A95E1F7F09044020115110549F081E01E
:101F40008093FB010E94FD1B9093FA018093F9019D
:101F50008091FB018823B1F08091F9019091FA0101
:101F60000E94E21B059770F0A9E3B2E0EF2DF0E0CC
:101F7000E95BFD4F8D91819332E0AE33B307D1F72A
:101F80001092FB010115110509F019C10E946C0C9A
:101F9000E0914402AE01455F5F4F7A01882309F466
:101FA00060C085E0DA011D928A95E9F70E2F10E0F6
:101FB000095B1D4F809132028A3048F44FE25CE0A9
:101FC000B701C8010E94A515882359F10AC0809164
:101FD000FC019091FD010E94E21B843F914070F74B
:101FE00032C047EC51E1B701C8010E94A515882312
:101FF000C1F04DE651E1B701C8010E94A515882343
:1020000081F046E451E1B701C8010E94A51588237B
:1020100041F04BE051E1B701C8010E94A5158111C3
:10202000D1C0809132028F3F19F08F5F80933202CE
:10203000809132028A3008F4C7C00E94FD1B909341
:10204000FD018093FC01E0914302F0E0E95BFD4F6C
:1020500080E090E01192019685309105D9F701E07A
:10206000C7C0F0E0E95BFD4FF89485E0A2E1B2E083
:1020700001900D928A95E1F765E070E082E192E0CF
:102080000E948624809311027894F894E09157027C
:10209000F0E0EC5AFD4F80818B878093180261E05D
:1020A00070E0C7010E948624809317027894F89408
:1020B000C0901902D0901A02E0901B02F0901C020E
:1020C0008091FE019091FF01A0910002B091010268
:1020D000C816D906EA06FB06D1F0C092FE01D092DE
:1020E000FF01E0920002F09201020E946C0C81114B
:1020F0000EC00E94F11BC61AD70AE80AF90AC0925C
:102100001D03D0921E03E0921F03F09220037894E7
:10211000F89480911D020E949D247894F8948091F7
:102120002502882309F449C080FF24C090911E0233
:1021300080910E0390FF09C0816080930E0360E0E0
:10214000892F86950E94FC2715C08E7F80930E03F1
:102150000E9481258091E60281608093E602EFEF84
:10216000F0E722E0E150F0402040E1F700C000003D
:102170000E94A3258091250281FF09C020E04091A3
:1021800021026091200280911F020E9418278091F5
:10219000250282FF09C080912402882319F00E9441
:1021A000882502C00E9481258091250283FF03C0FB
:1021B00081E08093250310922502789419C001E0F4
:1021C00010E016C010923202E0914302F0E0E95BA9
:1021D000FD4FD7019E01205F3F4F00E08D91908120
:1021E000981711F0808301E031962A173B07B1F769
:1021F000802F2F960FB6F894DEBF0FBECDBFDF91B4
:10220000CF911F910F91FF90EF90DF90CF90BF90F3
:10221000AF909F9008950F931F93CF93DF93CDB707
:10222000DEB728970FB6F894DEBF0FBECDBF85E0AE
:10223000EEE0F3E0DE01119601900D928A95E1F750
:102240008091E4029091E502A091E6028E839F8343
:10225000A88741E08885811101C040E008E010E0D6
:102260009E012F5F3F4F6EE272E086E00E941C0BE2
:1022700081111092E60228960FB6F894DEBF0FBEC9
:10228000CDBFDF91CF911F910F9108950F931F93B1
:10229000CF93DF931F92CDB7DEB78091130380FFFA
:1022A00004C086958695869501C080E0898341E0CB
:1022B00090911D02981301C040E001E010E09E01E2
:1022C0002F5F3F4F6AE272E085E00E941C0B0F9087
:1022D000DF91CF911F910F910895CF93DF9300D09D
:1022E00000D0CDB7DEB74091260250912702609111
:1022F0002802709129022FB7F8948091650290917D
:102300006602A0916702B09168022FBF841B950BF3
:10231000A60BB70B84369105A105B10580F10E948B
:102320007423DC01CB010296A11DB11D89839A8320
:10233000AB83BC8380912B0190912C018F5E9D4FCC
:1023400040912A0150E04530510510F044E050E042
:10235000BE016F5F7F4F0E947F2B84E090E00E9460
:10236000BA29892B11F080E00BC00E94F11B609309
:10237000260270932702809328029093290281E01D
:102380000F900F900F900F90DF91CF910895EF92E3
:10239000FF920F931F93CF93DF931F92CDB7DEB7BA
:1023A000EE24E394F12C08E112E09E012F5F3F4FF1
:1023B0004DE052E063E082E00E947C0B182F8823FE
:1023C00009F1E0914602F0E0EC5AFD4F89819081DD
:1023D000891B282F90E0121634F4215090819F5FC2
:1023E000908391E0F8CF282F87FD20E0821B88237F
:1023F00031F08F5F90819150908391E0F8CF9111EF
:102400000E942F0E812F0F90DF91CF911F910F917E
:10241000FF90EF900895CF93DF93CDB7DEB760972D
:102420000FB6F894DEBF0FBECDBF84B7877F84BFE1
:102430000FB6F894A8958091600088618093600041
:10244000109260000FBE90E080E80FB6F894809381
:102450006100909361000FBE85B7806885BF85B726
:10246000806885BF87ED9AE09093E7018093E6014D
:102470000E94671A0E94861A8091E200846080930D
:10248000E2007894809179028823A1F01091E9000C
:102490001F709091EC00892F817090FD80E8182BBF
:1024A0001092E9008091E80083FD0E945A171F7086
:1024B0001093E90082E084BD93E095BD9AEF97BD4B
:1024C00080936E0010921D0310921E0310921F0342
:1024D0001092200355985D9889B185FB882780F973
:1024E0008093560180915601882321F01092670154
:1024F00086E003C086E080936701809368010E94B4
:102500006C0C81110E94AD288091560181112DC063
:10251000FE0131968AE0DF011D928A95E9F781E399
:10252000898382E38A8382E98B8381EF8C8384EFC2
:102530008D83ACE4B1E0CE010B9621912D938E17E3
:102540009F07D9F726E0E7E7F1E0DE011B9601904F
:102550000D922A95E1F7FC01A6E4B1E0CE01419687
:1025600021912D938E179F07D9F7809156018111E4
:1025700002C095E001C090E09093440285E0891B81
:10258000809343020CE411E091E5E92E91E0F92EED
:10259000F80181918F018F3F11F00E948F0CE0169E
:1025A000F106B1F706E411E08CE4E82E81E0F82EA4
:1025B000D8018D918D018F3F11F00E948F0CE01694
:1025C000F106B1F7E9E3F2E083E492E0A7E4B2E0D8
:1025D00011921D928E179F07D9F780E090E00E941C
:1025E000802A893E9E4F11F00E94420E82E090E0C8
:1025F0000E94722A80935A020E94310E90933802F0
:102600008093370283E090E00E94722A682F70E086
:1026100080E090E00E94951F259A2D9882E8809393
:10262000800089E1809381008FEF9FEF9093870076
:10263000809386000E943C250E946C0C811102C090
:102640000E94B0280E943C258091450281113BC028
:1026500080E090E00E94802A893E9E4F21F00E94F7
:10266000420E0E94512688E090E00E947A2A6093F0
:102670000E0370930F0380931003909311038091C6
:10268000E60283608093E6026E7F71F40E94512619
:1026900088E090E00E947A2A60930E0370930F0303
:1026A00080931003909311030E940A260E948125B3
:1026B00080910E0380FF04C060E086950E94FC2795
:1026C00081E08093450280915601811106C087EF19
:1026D0008093620186EF8093610120916201E22F75
:1026E000E295EF70F0E031A12F7081E090E0AC0155
:1026F000022E01C0440F0A94EAF7542F5095352357
:1027000031A332A1432B42A340916101A42FA29592
:10271000AF70B0E091963C9191974F70042E01C03C
:10272000880F0A94EAF7982F9095932391969C939B
:10273000919792969C919297892B92968C939297CF
:1027400080A190E002C0959587952A95E2F7817067
:1027500090962C9130E002C0359527954A95E2F786
:1027600020FD02C090E001C092E0892B80935802C6
:102770009091560181E0982790935702891B80938E
:10278000460287E591E090931A0380931903F8E1DC
:10279000EF2EF12CA0E46A2EB1E5CB2EB2E0DB2EB9
:1027A00010E1712E80917902853009F044C012E168
:1027B00080917902853009F038C0809179028430A7
:1027C00021F180E00E949D24109221030FB6F8941D
:1027D000A895E09260000FBE6092600083B7817F91
:1027E000846083BF83B7816083BF7894889583B703
:1027F0008E7F83BF0FB6F894A895809160008861A2
:1028000080936000109260000FBE80917802882350
:1028100009F4CECF0E94100FE7E4F2E0819181111C
:102820007EC1CE16DF06D1F7C3CF0E949F1F0E9444
:102830003C250E94EB230E94100F81110E94F11B86
:10284000EBE5F2E0A7E4B2E000E010E0802E9D901E
:102850008191892549F1A12CBB24B394982F9B2108
:10286000F1F00E946C0C882399F0A9828A829B2047
:1028700081E009F480E08B830E94FD1B8160782F4A
:102880009D838C8349815A816B818D810E9478035D
:10289000F801E55AFD4F8081B826B0821AC0A39492
:1028A000BB0C26E0A212DACF0F5F1F4F0A301105D2
:1028B00069F68FEF8B878C871D860E94FD1B8160D8
:1028C000782F9F878E874B855C856D858F850E94CD
:1028D00078038091E502882309F4BDC08091E40269
:1028E000E0910E03E695E81BE0932403823059F44F
:1028F000F0E0EE5FFE4FE4910E2F10E0E7E3AE2E26
:10290000E3E2BE2E59C0863059F4F0E0E150FF4FAB
:10291000E4910E2F10E077E2A72E73E2B72E4CC0A1
:10292000893061F4E695F0E0E450FF4FE4910E2F1A
:1029300010E06CEAA62E62E2B62E3EC08F3061F443
:10294000E695F0E0E750FF4FE4910E2F10E050E1E4
:10295000A52E52E2B52E30C0853159F4F0E0EA5090
:10296000FF4FE4910E2F10E04AE8A42E41E2B42E6E
:1029700023C08831A1F0833249F4E4EFF0E00591FF
:10298000149137EEA32E32E2B32E16C0843271F4C6
:1029900004EF11E028EBA22E20E2B22E0DC008E2D7
:1029A00010E097EFA92E90E2B92E06C000ED17E0D7
:1029B00087EBA82E80E2B82E80912503882361F052
:1029C000109225030E948F23909323038093220368
:1029D00010922703109226030E948F23E091220376
:1029E000F09123039C012E1B3F0B2F3F3F4798F58F
:1029F000209153022223B1F01092530220915102F0
:102A000030915202821B930B8F3F9F4758F4205DF9
:102A10003A4830935202209351028091E602886036
:102A20008093E60280902603909027030E0F1F1FCD
:102A3000109323030093220382E293E0F5010995AA
:102A40008091260390912703892B29F4892819F076
:102A500081E080935302A09158025A2F550F550FD1
:102A600020916201E22FE295EF70F0E080A190E00A
:102A70002F7002C0959587952A95E2F78170992766
:102A800040916101E42FE295EF70F0E020A130E089
:102A90004F7002C0359527954A95E2F7D901A1708C
:102AA000BB2720FF02C0A2E0B0E0A82BB92BA52BCA
:102AB000A0935802E0915702AF70B0E0A055BE4F0E
:102AC0009C9180915602890F843034F0F0E0EC5AEA
:102AD000FD4F90819F5F07C08D3F44F4F0E0EC5ABA
:102AE000FD4F90819150908321E001C020E0082E9D
:102AF000000C990B64E070E00E94EC2A809356026F
:102B000021110E942F0E0E94EB23909159028917E8
:102B100009F448CE0E94EB238093590243CE79BC3E
:102B200019BD09B400FEFDCF8091D8008F7D809340
:102B3000D8008091E00082608093E0008091E00006
:102B400081FDFCCF0E949F1F33CEAF92BF92CF92E8
:102B5000DF92EF92FF920F931F93CF93DF937C014D
:102B60005B016A01809132028A3018F001E010E0C6
:102B700002C00AE010E0C1E0D0E0F894B501C7015E
:102B8000F60109957894811115C021960C171D073F
:102B900094F0CC9F9001CD9F300D300D112480E03A
:102BA00090E045E34A95F1F70000019682179307FC
:102BB000C1F7E3CF81E0DF91CF911F910F91FF909B
:102BC000EF90DF90CF90BF90AF9008952091E400F8
:102BD0003091E50095E64091EC00842F817040FF34
:102BE00023C08091E80080FD1DC080917902882378
:102BF00099F0853099F08091EB0085FD11C04091EE
:102C0000E4005091E5002417350729F3915011F0A5
:102C10009A01E1CF84E0089582E0089583E0089569
:102C200081E0089580E008954091E80042FFDDCF03
:102C30000895EF92FF920F931F93CF93DF937C0140
:102C40008B010E94E615811119C0E70101151105DC
:102C5000A1F08091E80085FD0AC08091E8008E77A0
:102C60008093E8000E94E615882381F307C08991CC
:102C70008093F10001501109E9CF80E0DF91CF91FD
:102C80001F910F91FF90EF90089580917B0287FF35
:102C900011C08091E80082FD05C080917902811108
:102CA000F8CF11C08091E8008B770BC0809179023A
:102CB000882349F08091E80080FFF8CF8091E800F8
:102CC0008E778093E8000895982F973068F5909359
:102CD000E900981739F07091EC002091ED005091C7
:102CE000F00003C0242F762F50E021FD02C09F5F2B
:102CF000ECCF3091EB003E7F3093EB003091ED0054
:102D00003D7F3093ED003091EB0031603093EB006C
:102D10007093EC002093ED005093F0002091EE00B2
:102D200027FDE5CF80E008958F708093E90081E072
:102D3000089520918102309182022617370748F0CA
:102D40006115710539F42091E8002E772093E80091
:102D500001C0B901FC0120E06115710579F1809194
:102D600079028823F1F18530F1F18091E80083FD4B
:102D70003CC08091E80082FD2EC08091E80080FF79
:102D8000EBCF2091F3008091F20090E0922B61153F
:102D9000710551F08830910538F421912093F100AC
:102DA000615071090196F3CF21E0089709F020E006
:102DB0008091E8008E778093E800CECF2111CFCFAD
:102DC0000AC080917902882361F0853061F080919A
:102DD000E80083FD0AC08091E80082FFF2CF80E026
:102DE000089582E0089583E0089581E008950895AC
:102DF00080916E02089590917902943031F580931C
:102E0000690270936B0260936A0282E08093E9002A
:102E10008FEF9091E800815095FD06C095ED9A9551
:102E2000F1F700008111F5CF8091E80085FF0DC01A
:102E300040E050E063E070E089E692E00E941916FD
:102E40008091E8008E778093E8000895BC0184E0CB
:102E50000C94FB16BC0183E00C94FB16CF93DF931C
:102E600021E02093E9002FEF3091E800215035FD5B
:102E700006C035ED3A95F1F700002111F5CF20910C
:102E8000E80025FF14C0EC0140E050E068E070E08D
:102E90000E9419168091E8008E778093E80088E000
:102EA000FE01AFE6B2E001900D928A95E1F7DF9165
:102EB000CF9108951F93CF93DF93CDB7DEB7AA9735
:102EC0000FB6F894DEBF0FBECDBFEBE7F2E0809106
:102ED000F100819322E0E338F207C9F780917C0288
:102EE000833009F460C030F4813071F0823009F42D
:102EF0009AC0B1C08A3009F486C08B3009F46BC027
:102F0000893009F0A8C020C080917B02813A09F085
:102F1000A2C08091E800877F8093E80080917F02C3
:102F200090918002892B21F468E08FE692E003C043
:102F300060E080E090E070E00E9499168091E800E7
:102F40008B778093E80087C080917B02813209F003
:102F500082C080917F0290918002029708F07BC02E
:102F60008091E800877F8093E8008091E80082FDEF
:102F700005C0809179028111F8CF6DC02091F300D6
:102F80008091F20090E0922B029729F48091F10059
:102F90008B7F813021F48091F10080936E028091CB
:102FA000E8008B7754C080917B02813A09F053C0CE
:102FB00080917F0290918002892B09F04CC0809112
:102FC000E800877F8093E8008091E80080FFFCCFD5
:102FD0008091630137C080917B028132E1F580915D
:102FE0007F0290918002892BB1F58091E800877F64
:102FF0008093E8000E94451680917D0280936301D2
:103000000E949F1F28C080917B02813221F5809110
:10301000E800877F8093E8000E94451680917E0239
:1030200080936D0218C080917B02813AA1F4809157
:10303000E800877F8093E8008091E80080FFFCCF64
:1030400080916D028093F1008091E8008E778093EB
:10305000E8000E9445168091E80083FFCCC1809172
:103060007B0290917C02492F50E04A30510508F0D4
:10307000C2C1FA01EE59FF4F0C94222B803821F087
:10308000823809F0B8C108C0809177029091780227
:10309000992389F082600FC080917F028F70873002
:1030A00008F0A9C18093E9008091EB0085FB882797
:1030B00080F91092E9009091E800977F9093E800E2
:1030C0008093F1001092F10065C1282F2D7F09F047
:1030D00092C1882319F0823061F08DC180917D0208
:1030E000813009F088C1933009F080E08093780244
:1030F0002EC080917D0281112AC080917F028F7045
:103100002FEF280F263008F076C18093E900209138
:10311000EB0020FF1CC0933021F48091EB00806213
:1031200014C09091EB0090619093EB0021E030E0AF
:10313000A90102C0440F551F8A95E2F74093EA00A7
:103140001092EA008091EB0088608093EB0010926F
:10315000E9008091E800877F20C181114CC1109166
:103160007D021F778091E3008078812B8093E300BC
:103170008091E800877F8093E8000E944516809147
:10318000E80080FFFCCF8091E30080688093E3003B
:10319000111102C082E001C083E0809379022BC14B
:1031A0008058823008F027C180917D0290917E0284
:1031B0008C3D53E0950779F583E08A838AE2898321
:1031C0004FB7F894DE01139620E03EE051E2E32F82
:1031D000F0E050935700E49120FF03C0E295EF70B8
:1031E0003F5FEF708E2F90E0EA3010F0C79601C07D
:1031F000C0968D939D932F5F243149F74FBF8091E7
:10320000E800877F8093E8006AE270E0CE010196D3
:103210000E949916AEC040917F0250918002292FE2
:10322000332723303105A9F068F42130310509F442
:10323000F1C02230310509F0DEC08BE390E0E8E711
:10324000F1E044C02132310521F12232310571F122
:10325000D2C0992781309105A1F058F0029709F06A
:10326000CAC0E5ECF1E0E4918E2F90E0E5ECF1E0EE
:103270002AC0EDEFF1E0E4918E2F90E0EDEFF1E068
:1032800022C0EDEEF1E0E4918E2F90E0EDEEF1E062
:103290001AC04115510509F4C2C04130510509F069
:1032A000AAC089E090E0E3EAF1E010C041155105C1
:1032B00009F4BAC04130510509F09DC082E390E0A5
:1032C000E6E0F1E003C0009709F495C02091E80022
:1032D000277F2093E800209181023091820282179B
:1032E000930708F49C0140E02115310589F1809194
:1032F0007902882309F43DC08530D9F18091E80036
:1033000083FD37C08091E80082FD2FC08091E800E6
:1033100080FFEACF4091F3008091F20090E0942B7F
:103320002115310559F08830910540F444914093BE
:10333000F1003196215031090196F2CF41E0089712
:1033400009F040E08091E8008E778093E800CCCFD0
:103350004111CDCF0AC080917902882351F0853088
:1033600041F08091E80083FD04C08091E80082FF75
:10337000F2CF8091E8008B778093E8003CC08038E2
:10338000D1F58091E800877F8093E80080917A02F0
:103390008093F1008091E8008E778093E8000E948E
:1033A000451629C0811127C080917D0290917E022F
:1033B0009927029704F58091E800877F8093E800C1
:1033C00010917D0210937A020E944516111106C0D9
:1033D0008091E30087FD02C081E001C084E080931A
:1033E000790242E061EC81E00E94641642E261EC05
:1033F00082E00E9464168091E80083FF1AC08091E9
:10340000E800877F8093E8008091EB0080628093E2
:10341000EB000FC082E190E0E3EBF1E057CF89E0F1
:1034200090E0EAE8F1E052CF80E490E0E8E3F1E0F8
:103430004DCFAA960FB6F894DEBF0FBECDBFDF9179
:10344000CF911F9108951F920F920FB60F921124E2
:103450002F933F934F935F936F937F938F939F939C
:10346000AF93BF93CF93DF93EF93FF93C091E900A6
:10347000CF708091EC00D82FD17080FDD0E81092F1
:10348000E9008091F000877F8093F00078940E949B
:103490005A171092E9008091F00088608093F00044
:1034A000CD2BCF70C093E900FF91EF91DF91CF91C9
:1034B000BF91AF919F918F917F916F915F914F914C
:1034C0003F912F910F900FBE0F901F901895E8ED30
:1034D000F0E080818E7F80831092E2001092DA000B
:1034E0001092E100A0EEB0E08C9181608C9380811D
:1034F0008F77808319BCA7EDB0E08C918E7F8C9381
:1035000080818F7E808310926C020895CF92DF922B
:10351000EF92FF920F931F93CF93DF93C8EDD0E00C
:1035200088818F7E8883E7EDF0E0808181608083F1
:1035300084E082BF81E080936C0288818E7F8883E3
:1035400002EE10E0F80110821092DA0081EEC82E2F
:10355000D12CF601108288818F77888388818068DA
:10356000888388818F7D888319BC1092790210929C
:103570007A02109278021092770290EEE92EF12CE6
:10358000F70180818B7F808388818160888342E01E
:1035900060E080E00E946416F60180818E7F808367
:1035A000F801808181608083808188608083F70159
:1035B00080818E7F8083888180618883DF91CF9135
:1035C0001F910F91FF90EF90DF90CF9008951F9281
:1035D0000F920FB60F9211242F933F934F935F9347
:1035E0006F937F938F939F93AF93BF93EF93FF93CB
:1035F0008091E10082FF09C08091E20082FF05C056
:103600008091E1008B7F8093E1008091DA0080FF60
:103610002AC08091D80080FF26C08091DA008E7F7A
:103620008093DA008091D90080FF18C080E189BDC5
:1036300082E189BD09B400FEFDCF81E0809379026B
:1036400080916C0281110FC00E94671A0E94861A35
:103650008091E20084608093E20005C019BC109262
:10366000790210926C028091E10080FF17C0809176
:10367000E20080FF13C08091E2008E7F8093E20021
:103680008091E20080618093E2008091D8008062A6
:103690008093D80019BC85E0809379028091E10085
:1036A00084FF2EC08091E20084FF2AC080E189BDA2
:1036B00082E189BD09B400FEFDCF8091D8008F7DE5
:1036C0008093D8008091E1008F7E8093E10080910B
:1036D000E2008F7E8093E2008091E200816080931F
:1036E000E20080917A02882311F084E007C0809183
:1036F000E30087FD02C081E001C083E0809379028E
:103700008091E10083FF27C08091E20083FF23C006
:103710008091E100877F8093E10082E080937902CD
:1037200010927A028091E1008E7F8093E100809177
:10373000E2008E7F8093E2008091E20080618093BE
:10374000E20042E060E080E00E9464168091F000B8
:1037500088608093F000FF91EF91BF91AF919F91AE
:103760008F917F916F915F914F913F912F910F902A
:103770000FBE0F901F90189578941F920F920FB65E
:103780000F9211248F939F93AF93BF938091650203
:1037900090916602A0916702B09168020196A11D06
:1037A000B11D8093650290936602A0936702B09367
:1037B0006802BF91AF919F918F910F900FBE0F90B4
:1037C0001F9018959C014FB7F894809165029091D5
:1037D0006602A0916702B09168024FBF821B930BF3
:1037E00008952FB7F89460916502709166028091F8
:1037F0006702909168022FBF08952FB7F8948091C7
:10380000650290916602A0916702B09168022FBF95
:10381000089580E090E00E94D52380E090E00E942F
:10382000BF231092F2011092F1010C94C90E809105
:10383000E2029091B102891719F08F5F8770FBCF78
:1038400008950F931F93CF93DF938091B0028295D9
:103850008F7009F05DC08091AD02882309F458C0D3
:103860008091E2021091B1026091AB027091AC02C2
:10387000C091AE02D091AF0291E06F3F09F090E0AD
:10388000292F06E0811709F443C0209721F07F3FDC
:1038900021F030E003C031E001C0322F90E030FD74
:1038A00034C0089FF001099FF00D1124DF01AE54D0
:1038B000BD4F11963C911197371327C03C91361399
:1038C00024C012963C91129731111FC013964D914E
:1038D0005C9114974C1B5D0B483C5105B0F48091F2
:1038E000B0028F7080618093B002E954FD4F8081F7
:1038F0008F70806180838BEA92E00E942004DF91C8
:10390000CF911F910F910C94171C01968770BACF1D
:10391000DF91CF911F910F9108958F929F92AF9257
:10392000BF92DF92EF92FF920F931F93CF93DF939B
:103930008090330290903402A0903502B09036020D
:103940004091F5015091F6016091F7017091F801F5
:10395000842A952AA62AB72ACFE1D0E026E0929FB2
:10396000700111249CE3D92E082F10E0D501C40169
:103970000C2E04C0B695A795979587950A94D2F713
:1039800080FD04C0219790F780E014C0DC9EF00118
:10399000DD9EF00D1124EE0DFF1DE00FF11FEE0F67
:1039A000FF1FEF5FFD4F859194910E94A60C019738
:1039B00049F38C2FDF91CF911F910F91FF90EF90E2
:1039C000DF90BF90AF909F908F900895CF93DF933B
:1039D000EC010E948D1C2CE3829FC0011124FC018C
:1039E00026E0D29FE00DF11D1124EC0FF11DEE0F2A
:1039F000FF1FEF5FFD4F859194910E94A60CDF9110
:103A0000CF910895FC01808191810E94E61C292FAD
:103A10002F70E92FE295EF704E2F50E0FA013297A8
:103A2000EE30F105B8F4E459FF4F0C94222B803F9F
:103A300099F018F4883E70F40FC0843F59F40CC01C
:103A4000883E50F0813F31F407C0822F86958695DD
:103A50008695089580E0089581E008959F92AF9241
:103A6000BF92CF92DF92EF92FF920F931F93CF936B
:103A7000DF93CDB7DEB761970FB6F894DEBF0FBE08
:103A8000CDBF8C0185E0F801DE011D9601900D92FD
:103A90008A95E1F7F801E2809091AB026091AC0267
:103AA0004091AE025091AF024115510531F06F3F88
:103AB00031F481E09F3F19F403C081E001C080E050
:103AC000F82FF1709F2E80FD1AC1F80130812181FD
:103AD000C380D4808BEAA82E82E0B82EF090AD028D
:103AE000F601E41BF50BFF2009F4C6C08091B0027B
:103AF000E83CF10508F091C0482F407F09F050C024
:103B0000621311C093130FC0FE2CE1100CC08F7014
:103B100080618093B002C5010E9420048091B002B0
:103B2000F801858329C1CD2831F02F3F31F481E0A0
:103B30003F3F19F403C081E001C080E080FD03C075
:103B400081E08E2502C080E090E0F82FF170FF2E1A
:103B500080FF1CC08091E2024091B10256E08417C0
:103B600009F4E8C090E0589FF001599FF00D11242E
:103B7000EE54FD4F6181261306C06081631303C0BC
:103B80006281E61203C001968770E9CFFE2CEE2019
:103B900009F4F2C08091B00281608093B00249C004
:103BA000621306C0931304C0E11002C0F80186C07E
:103BB000C8010E94021D882351F1EE2041F120919D
:103BC000B002822F82958F7090E0029774F08091FE
:103BD000AB029091AC0298878F831986DB86CA86E8
:103BE0002C87CE0107960E94200486E0F801ABEAFC
:103BF000B2E001900D928A95E1F70E94211C0AC063
:103C00006217C9F0C8010E94021D81111EC0C801BF
:103C10000E942004FF24F394AFC0482F407F81F717
:103C20008BEA92E00E94200486E0F50111928A95C9
:103C3000E9F7F12CA1C09313E5CFE110E3CFF80130
:103C40008583C8010E94200454C0EE2001F3209116
:103C5000B002822F82958F7090E0029734F28091AB
:103C6000AB029091AC029A8389831B82DD82CC8265
:103C70002E83CE010196B7CFE83CF105D0F5FE2C9E
:103C8000EE2029F2621327C0931325C02091B002C1
:103C900020FD18C0822F82958F70482F50E041156B
:103CA000510581F0F80125834F30510541F08F5FB8
:103CB000982F9295907F822F8F70892B8583C801D2
:103CC0000E94200486E0F801ABEAB2E001900D9278
:103CD0008A95E1F751C0C8010E94021D811185CF6C
:103CE0008091B00281608093B002C8010E942004DC
:103CF00043C086E0F50111928A95E9F73DC0EE20B8
:103D000009F485CFC8010E94021DF82E882309F40A
:103D10007ECF86E0F801ABEAB2E001900D928A9581
:103D2000E1F78091AB029091AC020E94E61C0E94E8
:103D3000211C22C03D872E878D859E850E94E61C12
:103D4000292F22952F70223028F49F7039F081118D
:103D500005C00BC0243028F49F7049F4805E883081
:103D600020F0C8010E9420049F2CF92C05C0F80106
:103D70009581907F99F7F9CF8F2D61960FB6F894C2
:103D8000DEBF0FBECDBFDF91CF911F910F91FF908E
:103D9000EF90DF90CF90BF90AF909F900895292F24
:103DA000220F920F990F890F682F66956695669579
:103DB000982F977085E0689FB001112440E050E093
:103DC00080E0FB01E40FF51FED57FD4F208130E04F
:103DD000092E02C0369527950A94E2F72170332701
:103DE000042E01C0220F0A94EAF7822B4F5F5F4F27
:103DF0004530510531F70895292F220F920F990F61
:103E0000890FE82FE695E695E695877051E001C0A9
:103E1000550F8A95EAF785E0E89FF0011124ED57E8
:103E2000FD4F20E030E070E04081CB01022E02C067
:103E3000969587950A94E2F781708195842785236A
:103E4000842781932F5F3F4F2530310569F708950F
:103E5000609333027093340280933502909336025C
:103E60000C94091C0F931F9341E050E060E070E058
:103E700004C0440F551F661F771F8A95D2F74095DF
:103E80005095609570958091330290913402A09185
:103E90003502B09136028A019B01082319232A2397
:103EA0003B23C901B8011F910F910C94281F209149
:103EB000E302809582238093E302982F977041F468
:103EC00030E0482F082E000C550B2417350721F43D
:103ED0009091380292FF07C08595859585950E943F
:103EE000321F1092E30208950F931F9341E050E0B8
:103EF00060E070E004C0440F551F661F771F8A956D
:103F0000D2F78091330290913402A0913502B091A2
:103F100036028A019B01082B192B2A2B3B2BC90146
:103F2000B8011F910F910C94281F6093F5017093B5
:103F3000F6018093F7019093F8010C94091C1092FC
:103F4000F30186E0EBEEF1E0DF011D928A95E9F7DF
:103F50000C94091C882341F080959091F3018923EA
:103F60008093F3010C94C90E0895882339F0909141
:103F7000F301892B8093F3010C94C90E08958823D3
:103F800009F458C0682F823869F40E94EB2381FF3E
:103F900051C069E389EE91E00E94A5230E94C90EF9
:103FA00069E30EC0833891F40E94EB2380FF42C086
:103FB00063E589EE91E00E94A5230E94C90E63E5A6
:103FC00089EE91E00E9498230C94C90E843869F41C
:103FD0000E94EB2382FF2EC067E489EE91E00E94ED
:103FE000A5230E94C90E67E4EBCF8CEF860F813AC0
:103FF00038F380E2860F883070F4677081E090E0DB
:1040000001C0880F6A95EAF780959091F3018923A2
:104010008093F301D9CF8BE5860F833020F480E0C5
:1040200090E00C94D523685A673120F480E090E04A
:104030000C94BF230895CF93882309F496C0C82F0A
:104040008238B1F40E94EB2381FD8FC069E389EED1
:1040500091E00E94A5230E94C90E2FEF81EE94E00B
:10406000215080409040E1F700C0000069E317C094
:104070008338E1F40E94EB2380FD77C063E589EE8D
:1040800091E00E94A5230E94C90E2FEF81EE94E0DB
:10409000215080409040E1F700C0000063E589EEC8
:1040A00091E00E949823CF910C94C90E8438B1F40A
:1040B0000E94EB2382FD59C067E489EE91E00E94E3
:1040C000A5230E94C90E2FEF81EE94E0215080407D
:1040D0009040E1F700C0000067E4E1CF8CEF8C0F67
:1040E000813A80F4EBEEF1E081EF91E02191C2178B
:1040F000A1F18E179F07D1F76C2F89EE91E00E94F6
:10410000A523D1CF80E28C0F883068F4C77081E09E
:1041100090E001C0880FCA95EAF79091F301892BCE
:104120008093F301C0CFEBE5EC0FE33040F4F0E017
:10413000E358FE4F808190E0CF910C94D523C85A6C
:10414000C73198F4EC2FF0E0EE0FFF1FE058FE4F60
:1041500080819181CF910C94BF236C2F89EE91E0E7
:104160000E9498230E94C90EC7CFCF910895089549
:104170000F931F93CF93DF93EC0100E010E0809149
:104180006B01282F30E00217130724F59091690185
:104190009801290F311DA901440F551F240F351F08
:1041A00026513D4F869590E04C81081719071CF465
:1041B000442331F002C0411103C04091110301C0FA
:1041C00040E06091100380910F030E9468260F5F0A
:1041D0001F4FD5CF0E94A3258C8190E0019681705E
:1041E00099278C83DF91CF911F910F9108958F9222
:1041F0009F92AF92BF92CF92DF92EF92FF920F9376
:104200001F93CF93DF938C01FC014481C42FD0E036
:104210009E01DE010E94302B9B01AC010E94462BC7
:104220006B017C01E0E2F0E0EC1BFD0BA5E5B0E0EA
:104230009B01AC010E94462B4B015C019F01DF01F9
:104240000E94282B9B01AC010E94512B9B01AC01C9
:104250002C0D3D1D4E1D5F1DC501B4010E94002B9C
:10426000C22FD22F2A3228F4F3E02F9F900111247D
:104270000DC025E530E02C1B3109C901880F991FBD
:10428000280F391F37FF02C02F5F3F4F3595279505
:10429000C22FC095F12C85E5E82EED1A80916B01B7
:1042A000F816C8F4F1FC02C08E2D01C08D2F90913C
:1042B00069012F2D30E0290F311DA901440F551F31
:1042C000240F351F26513D4F4C2F609110030E9443
:1042D0006826F394E3CF0E94A325F801848181111D
:1042E00002C091E003C0803219F49FEF9093660101
:1042F00090916601890FF8018483DF91CF911F911E
:104300000F91FF90EF90DF90CF90BF90AF909F9074
:104310008F9008951F93CF93DF93EC018C818111CF
:1043200009C081E08C831092E80292E090936501CD
:10433000809364018091690190916A01891770F4FA
:10434000E82FF0E09F01220F331FE20FF31FE65129
:10435000FD4F1182108212828F5FF0CF10E06091CA
:104360006B011617C0F5E12FF0E070E0CF010E945D
:10437000EC2A20916901820F2091E802022E000CA4
:10438000330B90E0E217F307CCF020916501022E89
:10439000000C330B2E173F078CF09C01220F331FAC
:1043A000820F931F9C0126513D4F40911103609154
:1043B000100380910F030E9468260BC0FC01EE0FD2
:1043C000FF1F8E0F9F1FFC01E651FD4F11821082CF
:1043D00012821F5FC4CF0E94A325809164012091A7
:1043E000E802280F2093E80290916501980F9093BE
:1043F000650119165CF4022E000C330B40916B0121
:1044000050E0415051092417350734F081958093CD
:104410006401813009F41C82DF91CF911F910895CE
:104420007F928F929F92AF92BF92CF92DF92EF9244
:10443000FF920F931F93CF93DF93EC018A8180FF4C
:1044400003C0BB24BA9402C0BB24B3948C818111F5
:104450000DC081E0B81206C080916B01815080933D
:10446000E70202C01092E70281E08C83A12C4CE0AD
:10447000842E90906B01A91408F041C080916901CD
:10448000CA2CD12C8601080F111DC801880F991F55
:10449000080F191F06511D4FF80111821082128258
:1044A00034E0E32EF12C712C8091E702870D8D30E2
:1044B0002CF0682D0E94CA2A892F02C087FD890D21
:1044C000082E000C990BC816D90691F4809111039F
:1044D0008E9DA0018F9D500D1124559547955595A2
:1044E000479598016091100380910F030E94682600
:1044F0007B0CF1E0EF1AF108B9F6A394BACF0E9451
:10450000A3258091E70291E0B9120EC0811107C086
:1045100080916B0181508093E7021C820FC0815013
:104520008093E702BC820AC090E0019660916B0123
:1045300070E00E94EC2A8093E7028C83DF91CF9198
:104540001F910F91FF90EF90DF90CF90BF90AF90B1
:104550009F908F907F900895FF920F931F93CF931A
:10456000DF93EC01F12C0FEF10E060916B01F61678
:10457000F0F4809169012F2D30E0280F311DC90121
:10458000880F991F280F391F26513D4F70E0C80131
:104590000E94EC2A962F8C814091110360911003A8
:1045A000F99E800D11240E946826F394DECF0E94AC
:1045B000A3259A818C8190FF02C08F5F01C081503A
:1045C0008C83DF91CF911F910F91FF9008950F93EE
:1045D0001F93CF93DF9300D01F92CDB7DEB78C012E
:1045E0008091E90281110AC09E012F5F3F4F4FEF7A
:1045F0006FEF0E9468268A818093E902F801848126
:10460000813051F028F0823061F44091E9020AC013
:104610008091E90240E007C06091E90240E080E05B
:1046200003C040E080E060E00E94EF25F801848153
:1046300090E0019663E070E00E94EC2A84830F9082
:104640000F900F90DF91CF911F910F910895CF930D
:10465000DF93EC01EEE0F3E0438162818C810E9404
:10466000FE268C818F5F8C83DF91CF910895CF934D
:10467000DF93EC01EC81F0E0E75AFB4F4491EEE070
:10468000F3E0628181810E94FE268C818F5F8C83A2
:10469000DF91CF9108951F920F920FB60F921124C0
:1046A0008F939F93AF93BF9380912103811113C088
:1046B0008091650290916602A0916702B0916802B4
:1046C0004196A11DB11D8093650290936602A0934F
:1046D0006702B0936802BF91AF919F918F910F9045
:1046E0000FBE0F901F9018950F931F930E946C0C94
:1046F000882321F01F910F910C94F11B0E94F11B54
:1047000000911D0310911E0320911F03309120037F
:10471000600F711F821F931F1F910F9108950E94B8
:104720006C0C81110C94FD1B0E947423CB01089525
:104730009C012A5F3F4FFC014281461301C0128257
:10474000019682179307B9F708959C01FC013296F0
:104750009FEF80E04191461789F09F3F19F4411186
:1047600001C0982F8F5F8630A9F79F3F39F0F9017C
:10477000E90FF11D97FDFA95628308950895209140
:104780001B0330911C032817390771F090931C0309
:1047900080931B03E0911903F0911A03309721F0E5
:1047A0000084F185E02D099408952091170330913C
:1047B00018032817390771F0909318038093170393
:1047C000E0911903F0911A03309721F00680F781E8
:1047D000E02D099408950E946C0C882351F0E0911B
:1047E0001903F0911A03309721F00190F081E02D28
:1047F000099480E00895EF92FF920F93CF93DF9397
:10480000C42FD22FFC0182818823D1F0409316035C
:104810000E94FD1B909315038093140380E28C0F7C
:10482000883008F06DC0C77081E001C0880FCA955C
:10483000EAF7DF91CF910F91FF90EF900C94B51FA5
:104840008091160348134BC0809114039091150377
:104850000E94E21B883C910508F041C0CD17C9F0C9
:1048600080E28C0F883040F4C77081E001C0880F6F
:10487000CA95EAF70E94AA1F80E28D0F883048F49B
:1048800081E09D2F977001C0880F9A95EAF70E94EA
:10489000B51F093319F0E12CF12C03C080E5E82E97
:1048A000F12C802F0E941B20E114F10451F08FE9BC
:1048B0009FE00197F1F700C0000091E0E91AF108CC
:1048C000F3CF802F0E94BF1F80E28D0F8830C0F48D
:1048D000D77081E001C0880FDA95EAF70AC080E25C
:1048E0008C0F883068F4C77081E001C0880FCA95CA
:1048F000EAF7DF91CF910F91FF90EF900C94AA1FF0
:10490000DF91CF910F91FF90EF900895FC01680F18
:10491000791F8FEF91E3E617F70771F02191822756
:1049200028E030E087FF03C0880F892701C0880F87
:1049300021503109B9F7EFCF0895CF92DF92EF926E
:10494000FF92863048F4811108C0909180009F77D3
:10495000909380002D9806C085E09091800090682B
:1049600090938000282F30E0AFEFBFEF0E94302BF4
:1049700025E030E040E050E00E94002BB42FA32F50
:10498000922F8827492F5A2F6B2F7727CA014C3730
:1049900024E1520728F469E070E00E94D82A29C077
:1049A000DB01CA018A50974DAF4FBF4F6627782F62
:1049B000892F9A2F25EF38E241E050E00E94002B2A
:1049C00069017A01CA01B9010E94BA2A9B01AC01AE
:1049D000C701B6010E94BA2ABB27A92F982F872F9B
:1049E000009721E0A207B10511F0BC0102C06FEFF2
:1049F0007FEF7093890060938800FF90EF90DF90C5
:104A0000CF900895682F86E090E00C94862A863037
:104A100008F085E0909113039770282F220F220F42
:104A2000220F922B90931303987F21E009F420E04A
:104A30009091130320FB90F9909313030E949D24FF
:104A4000809113030C9402258091130380FD13C001
:104A5000816080931303813019F489E080931303FC
:104A6000809113030E9402258091130386958695F9
:104A700086950C949D24089580E090E00E94802A01
:104A8000893E9E4F51F00E94420E80911303847024
:104A90008962809313030E94022586E090E00E94C1
:104AA000722A80931303282F26952695269530E0A9
:104AB0002630310524F0877088628093130380913B
:104AC000130380FF04C086958695869501C080E01B
:104AD0000C949D2490910E0390FF04C09695981716
:104AE00040F003C0811105C090E0961710F40C94BB
:104AF00048280C943C28882311F0FA0101C0FB01DE
:104B00000994E4EEF2E01182828184608283089548
:104B100060910E03669570E04BE050E08CE691E00A
:104B20000E94652B892B19F481E08093E5020E9495
:104B30008F2390932303809322038091E602846065
:104B40008093E60208953091680180910E0380FF02
:104B500016C0E091670163E0E69FF0011124E65181
:104B6000FD4F569A8BB18F7B9BB190642FB7F89411
:104B7000AF0163E0369F400D511D112414C0809198
:104B8000690190916A01891720F7E82FF0E0AF01E1
:104B9000440F551FE40FF51FE651FD4F118210829F
:104BA00012828F5FF0CFE417F50789F0319168E04A
:104BB0009BB9000000C037FF8BB9330F000000C065
:104BC00000C000C08BB900C06A9591F7ECCF2FBF31
:104BD0008FE594E00197F1F700C0000008959091EF
:104BE0000E0390FF16C09091690120916A019217FF
:104BF00070F4E92FF0E0DF01AA0FBB1FEA0FFB1FE3
:104C0000E651FD4F8183608342839F5FF0CF0C9418
:104C1000A325089580910E03282F269530E02115B5
:104C2000310519F48170826005C02532310524F008
:104C30008170886480930E030895CF92DF92EF9283
:104C4000FF926B017C010E940A26B701A60188E051
:104C500090E0FF90EF90DF90CF900C94982A809195
:104C60001203882319F081508093120360910E0380
:104C700070910F0380911003909111030C941D26E5
:104C800080911203833018F48F5F80931203609138
:104C90000E0370910F0380911003909111030C94F7
:104CA0001D26EEE0F3E083E0808311828FEF8283A4
:104CB00083831482A4EEB2E012968C9112978360E3
:104CC00012968C9360817181828193810C941D2650
:104CD000AF92BF92CF92DF92EF92FF920F931F930A
:104CE000CF93DF93E82EF62EE901E42FF0E0611177
:104CF00006C0E75AFA4FE4914E2F2E2F71C0062FAF
:104D000010E0E75AFA4F4491F42FC42ED12C26E03C
:104D1000829FC00111242FEF30E0B9010E94D82AF0
:104D20005BEA5603C001579F900D11248E0D911D13
:104D30008E0D911D582F550F580FD901A01BB10B87
:104D4000AC9DC001AD9D900DBC9D900D1124E92F2F
:104D5000F59ED0011124AB2FBB277901EA1AFB0A7B
:104D6000EC9CD001ED9CB00DFC9CB00D11245901C0
:104D7000A51AB108A09E7001A19EF00CB09EF00C87
:104D80001124EF2CFF242E193F092C9D80012D9D0D
:104D9000100D3C9D100D1124212F6230710591F0F2
:104DA00048F461157105E1F061307105B9F4242F03
:104DB0004B2F16C06430710569F040F06630710504
:104DC00079F00CC0242F492FE12F0AC0492FEF2F73
:104DD0002B2F06C0292FE42F412F02C0292FEB2FA4
:104DE00049832883EA83DF91CF911F910F91FF9030
:104DF000EF90DF90CF90BF90AF900895CF93DF9367
:104E000000D01F92CDB7DEB790910E0390FF0AC07D
:104E10009E012F5F3F4F0E9468264B8169818A81E6
:104E20000E94EF250F900F900F90DF91CF91089582
:104E3000AF92BF92CF92DF92EF92FF920F931F93A8
:104E4000CF93DF9300D01F92CDB7DEB7182FF62E89
:104E5000042FE22E90910E0390FF7EC0E92FE6957D
:104E6000AE2FB0E0A054BE4F8C918093E4029E7FA1
:104E7000923061F49E012F5F3F4F812F0E94682680
:104E80004B8169818A810E94EF2543C0823019F4E9
:104E9000009111033EC0863019F410910F0339C000
:104EA0008930D9F38931A9F5E9518E2F8170D82E37
:104EB000E695F0E0E75AF94FA590B490C12CBB24D9
:104EC00060916B01C61618F52C2D30E0A29EC00132
:104ED000A39E900DB29E900D112470E00E94D82ADE
:104EE000812FD11002C0860F01C0861B90916901ED
:104EF000290F311DA901440F551F240F351F2651BD
:104F00003D4F402F6F2D0E946826C394D9CF0E9439
:104F1000A32580910F03181308C080911003F81285
:104F200004C080911103081729F08091E602826085
:104F30008093E60210930F03F09210030093110385
:104F4000EE2051F060910E0370910F0380911003D9
:104F5000909111030E941D260F900F900F90DF91EA
:104F6000CF911F910F91FF90EF90DF90CF90BF9066
:104F7000AF900895EEE0F3E0438121E1421B08F495
:104F800040E021E0628181810C941827EEE0F3E09B
:104F9000438121E1420F08F44FEF21E062818181DA
:104FA0000C941827EEE0F3E0628121E1621B08F423
:104FB00060E021E0438181810C941827EEE0F3E06A
:104FC000628121E1620F08F46FEF21E0438181816A
:104FD0000C941827EEE0F3E0818121E043816281A7
:104FE00088500C941827EEE0F3E0818121E04381A2
:104FF0006281885F0C94182790910E0390FF3BC04C
:105000009170811102C0926006C0853210F09864E0
:1050100002C0880F982B90930E038091E602816066
:105020008093E602662351F060910E0370910F03A6
:1050300080911003909111030E941D2660910E0330
:10504000669570E04BE050E08CE691E00E94652BA5
:10505000892B19F00E94812502C00E94882581E0D9
:105060008093250320E0409111036091100380910B
:105070000F030C941827089561E00C94FC2780918D
:105080000E038695815009F484E261E00C94FC27BC
:1050900080910E0386958F5F853208F081E061E094
:1050A0000C94FC278EE1489B02C08150E1F7489B9D
:1050B000FECF0895589880E28A95F1F7589A08959E
:1050C000FC012AE02A95F1F728E090E080E031E049
:1050D00040E14A95F1F7880F489B02C08160932711
:1050E00000C0000040E14A95F1F7215089F720E126
:1050F0002A95F1F729B100C0000030E13A95F1F7A7
:10510000217092272081920F90830895EF92FF9251
:105110000F931F93CF93DF931F92CDB7DEB7198202
:105120008C017C01E60EF11C0E151F0551F00E944A
:105130005228CE0101960E946028F80181938F01C8
:10514000F3CF81E09981911180E00F90DF91CF91B1
:105150001F910F91FF90EF900895509A589A0895DB
:105160005098589AE89AE9E6F0E080818C7F808335
:105170000895615091E001C0990F6A95EAF720E027
:1051800031E0992361F0492F482319F0589A2327D9
:1051900001C0589840E24A95F1F79695F2CF222344
:1051A00011F0589A01C0589880E28A95F1F7589802
:1051B0000895FF920F931F93CF93DF93EC018C011F
:1051C000060F111DC017D10741F0F9900E945A280F
:1051D00068E08F2D0E94B928F5CFDF91CF911F9104
:1051E0000F91FF9008951F920F920FB60F92112406
:1051F000EF92FF920F931F932F933F934F935F93E1
:105200006F937F938F939F93AF93BF93EF93FF938E
:10521000CF93DF931F92CDB7DEB719820E94522839
:10522000CE0101960E946028A82FA695A695A69566
:105230009A2F969595702A2F2570920F292F2370FB
:1052400096959695920F877089137CC089818111FC
:1052500079C0A83008F076C080E18A95F1F7589AB5
:10526000509AB2E0BA95F1F700C05898EA2EF12CA6
:10527000EAE0AE9FD0011124A050BF4F1896ED91E7
:10528000FC9119973097B1F06091AE017091AF0128
:1052900016962D913C911797260F371F13968D91D7
:1052A0009C911497680F791F15964C91159712963B
:1052B0008C9109958AE08E9DF0018F9DF00D11244F
:1052C000E050FF4F6581662351F08091AE019091CF
:1052D000AF0126813781820F931F0E94D9280E9437
:1052E0005A28F0E1FA95F1F758985098589A80E1C9
:1052F0008A95F1F78AE08E9D80018F9D100D112413
:1053000000501F4FD80112966C911297662399F0A6
:105310008091AE019091AF0113962D913C9114971D
:10532000820F931F0E948628D801ED91FC91811174
:1053300005C082E004C0D801ED91FC9188E0808333
:105340000E9452280F90DF91CF91FF91EF91BF9172
:10535000AF919F918F917F916F915F914F913F910D
:105360002F911F910F91FF90EF900F900FBE0F9014
:105370001F9018950F931F93CF93DF93883091055B
:105380000CF0A9C02AE0289FF001299FF00D1124FC
:10539000E050FF4F20813181232B09F49CC0EC01A8
:1053A000F894509A589885E08A95F1F700008C2F70
:1053B000869585709C2F9570890F982F9370869590
:1053C00086958E0123E0000F111F2A95E1F7890FC2
:1053D000082B0E945A28A4E0AA95F1F700C068E0C3
:1053E000802F0E94B928B0E1BA95F1F75098589AE9
:1053F000489902C000C0FCCF87E090E0489B17C0EE
:10540000019799F4509A589A8AE08C9FF0018D9FE9
:10541000F00D1124E050FF4F0190F081E02D81E06C
:105420008083789481E090E058C000C0E7CF8AE0A4
:105430008C9F80018D9F100D112400501F4FF8018B
:1054400065816623B9F08091AE019091AF0126810C
:105450003781820F931F0E94862881110BC0509ABA
:10546000589AD801ED91FC9182E08083789482E093
:1054700090E033C00E945228B0E2BA95F1F75898F4
:10548000509AE0E1EA95F1F78AE08C9FF0018D9F58
:10549000F00D1124E050FF4F6281662351F080919E
:1054A000AE019091AF0123813481820F931F0E943E
:1054B000D9280E945A288AE08C9FF0018D9FF00D18
:1054C0001124E050FF4F0190F081E02D108278947C
:1054D00080E090E002C084E090E0DF91CF911F91E6
:1054E0000F910895F999FECF92BD81BDF89A992741
:1054F00080B50895A6E1B0E044E050E00C94AC2AF9
:10550000A8E1B0E042E050E00C94AC2A262FF999D3
:10551000FECF92BD81BDF89A019700B4021639F012
:105520001FBA20BD0FB6F894FA9AF99A0FBE0895E3
:105530000396272F0E94872A0E94862A252F0E94E1
:10554000872A242F0C94872A0196272F0E94872AC6
:105550000C94862ADC01CB01FC01F999FECF06C030
:10556000F2BDE1BDF89A319600B40D924150504021
:10557000B8F70895DB018F939F930E94462BBF914C
:10558000AF91A29F800D911DA39F900DB29F900D92
:105590001124089587FB082E062687FD819567FD57
:1055A00061950E94592B0EF4919507FC8195089501
:1055B000AA1BBB1B51E107C0AA1FBB1FA617B70739
:1055C00010F0A61BB70B881F991F5A95A9F7809555
:1055D0009095BC01CD01089597FB072E16F4009419
:1055E00007D077FD09D00E94D82A07FC05D03EF4E9
:1055F000909581959F4F0895709561957F4F08957F
:10560000A1E21A2EAA1BBB1BFD010DC0AA1FBB1FC6
:10561000EE1FFF1FA217B307E407F50720F0A21B38
:10562000B30BE40BF50B661F771F881F991F1A94A5
:1056300069F760957095809590959B01AC01BD01CF
:10564000CF010895EE0FFF1F0590F491E02D09940E
:105650000E94302B332312F48A1B9B0B0C94412B9A
:10566000A29FB001B39FC001A39F700D811D1124A3
:10567000911DB29F700D811D1124911D08950E94EE
:10568000302BB7FF0895821B930B08950E94302B97
:10569000A59F900DB49F900DA49F800D911D112486
:1056A0000895B7FF0C94462B0E94462B821B930B48
:1056B0000895991B79E004C0991F961708F0961B6E
:1056C000881F7A95C9F780950895FC014150504094
:1056D00030F001900616D1F73197CF010895882751
:1056E00099270895FB01DC0104C08D910190801978
:1056F00021F441505040C8F7881B990B0895FB01D5
:10570000DC0102C001900D9241505040D8F708953D
:04571000F894FFCF3B
:105714000C0200000001000000000C020000000563
:10572400010000000C0200000001060000000C0251
:1057340000000001070000000C0204080000000043
:1057440000000C02010C0000000000000C02080D17
:10575400000000000000F1F49392379431F0F5F664
:10576400F7000000000001F8162E17F7162A172676
:1057740017333201010201000C000C0C01191A1B31
:105784001C1D1E1F20212294979337F0338182839E
:10579400E200E900EA00B500B600B700CD008301DD
:1057A400CC008A01920194012102230224022502E1
:1057B400260227022A02B300B4006F00700011020F
:1057C40000FF0100010000FFFF0000010001FF00D5
:1057D4000001020202020606060909090909090F65
:1057E4000F0F0F0F0F151515181919191919191964
:0657F4001919192324001D
:00000001FF
