:100000000C948A080C94D1080C94D1080C94CA2C36
:100010000C94D1080C94D1080C94D1080C94D108FC
:100020000C94D1080C94D1080C94D31D0C94881C0A
:100030000C94551F0C94D1080C94D1080C94D10841
:100040000C94D1080C94D1080C94D1080C94D108CC
:100050000C94D1080C94081F0C94D1080C94D1086E
:100060000C94D1080C94D1080C94D1080C94D108AC
:100070000C94D1080C94D1080C94D1080C94D1089C
:100080000C94D1080C94D1080C94D1080C94D1088C
:100090000C94D1080C94D1080C94D1080C94D1087C
:1000A0000C94D1080C94D1080C94D108020D020DC7
:1000B000340D340DA60D4E0F4E0F4E0FC20DA00E77
:1000C000B10EB10E5E1A611A641A671A6A1A6D1AB5
:1000D000701AC023C023D323D323C923D323D3230C
:1000E000D323C023C023CE23D323D323CE238B28D3
:1000F000B2284A2AB2284A2AFA281D294A2A0C2A52
:100100001F2A00DA1281FFD9F1DB20A4A62EAF004E
:10011000A0C000A1C800AED580A83FD300408D1478
:10012000200000000000000000000000000000802F
:1001300080C0E0F07078383C1C1E0E0E0E070707DA
:10014000070707070707070707070707070E0E0E2A
:100150001E1C3C387870F0E0C08080000000000079
:10016000000000000000000000000000000000008F
:10017000000000000000000000000000000000007F
:10018000000000000000000000000000000000006F
:10019000000000000000000000000000000000005F
:1001A000000000000000000000C0E0F07C3E1F0FD7
:1001B00007030180C0E0F078383C1C1E0E0E0707D4
:1001C00087E77F1FFFFF1F7FE78707070E0E1E1CB5
:1001D0003C3878F0E0C0800103070F1F3E7CF0E060
:1001E000C00000000000000000000000000000004F
:1001F00000000000000000000000000000000000FF
:1002000000000000000000000000000000000000EE
:1002100000000000000000000000000000000000DE
:10022000000000000000F0FCFF1F07010000C0F00C
:10023000FCFEFFF7F3B1B03030303030303078FEB4
:1002400087010000FFFF00000187FE78303030306A
:10025000303030B0B1F3F7FFFEFCF0C00000010712
:100260001FFFFCF000000000000000000000000084
:10027000000000000000000000000000000000007E
:10028000000000000000000000000000000000006E
:10029000000000000000000000000000000000005E
:1002A0000000000000FFFFFF0000000000FEFFFF55
:1002B0000101071E78E181838386868C8C9898B132
:1002C000B7FEF8E0FFFFE0F8FEB7B198988C8C8697
:1002D00086838381E1781E070101FFFFFE00000095
:1002E0000000FFFFFF00000000FFFF0000C0C03063
:1002F000300000F0F0000000000000F0F00000F01E
:10030000F0C0C030303030C0C000003030F3F300F7
:100310000000000000303030303030C0C00000003D
:100320000000000000FFFFFF00000000007FFFFF53
:100330008080E0781E8781C1C16161313119198DDA
:10034000ED7F1F07FFFF071F7FED8D191931316109
:1003500061C1C181871E78E08080FFFF7F000000BF
:100360000000FFFFFF000000003F3F03030C0C30C4
:1003700030000000003333333333330F0F00003FBE
:100380003F0000000000000000000030303F3F3020
:100390003000000C0C3333333333333F3F00000065
:1003A0000000000000000F3FFFF8E0800000030F96
:1003B0003F7FFFEFCF8D0D0C0C0C0C0C0C0C1E7F37
:1003C000E1800000FFFF000080E17F1E0C0C0C0CA0
:1003D0000C0C0C0D8DCFEFFF7F3F0F03000080E072
:1003E000F8FF3F0F000000000000000000000000C8
:1003F00000000000000000000000000000000000FD
:1004000000000000000000000000000000000000EC
:1004100000000000000000000000000000000000DC
:1004200000000000000000000003070F3E7CF8F011
:10043000E0C0800103070F1E1C3C38787070E0E0BC
:10044000E1E7FEF8FFFFF8FEE7E1E0E070707838E2
:100450003C1C1E0F07030180C0E0F0F87C3E0F0734
:100460000300000000000000000000000000000089
:10047000000000000000000000000000000000007C
:10048000000000000000000000000000000000006C
:10049000000000000000000000000000000000005C
:1004A000000000000000000000000000000000014B
:1004B0000103070F0E1E1C3C3878707070E0E0E0FE
:1004C000E0E0E0E0E0E0E0E0E0E0E0E0E07070707C
:1004D00078383C1C1E0E0F070301010000000000CD
:1004E000000000000000000000000000000000000C
:1004F00000000000000000000000000000000000FC
:1005000000000000000000000000000000000000EB
:1005100000000000000000000000000000000000DB
:10052000000020202020202020005343524C434B29
:10053000200020202020202020004341504C434B0D
:10054000200020202020202020004E554D4C434BE1
:100550002000556E646566696E65640A0041646AD0
:100560007573740A0046756E6374696F6E0A005382
:10057000796D0A004E61760A00436F6C656D616BA0
:100580002D44480A0044766F72616B0A005157454A
:100590005254590A004C617965723A20004B7972C5
:1005A000696120726576312E300A0A00808182836B
:1005B0008485868788898A8B8C8D8E8F9091929383
:1005C00094A0A1A2A3A4A5A6A7A8A9AAABACADAECE
:1005D000AFB0B1B2B3B4C0C1C2C3C4C5C6C7C8C945
:1005E000CACBCCCDCECFD0D1D2D3D4000001010123
:1005F00001010101010102020202020202020203E0
:1006000003030303030303040404040404040505AF
:100610000505050606060606070707070708080872
:1006200008090909090A0A0A0B0B0B0C0C0C0D0D21
:100630000D0E0E0E0F0F0F101011111112121313B9
:100640001414151516161717181819191A1A1B1B32
:100650001C1D1D1E1E1F202021222223242425268E
:1006600026272829292A2B2C2D2D2E2F30313232C6
:10067000333435363738393A3B3C3D3E3F404142D2
:10068000434445464748494A4C4D4E4F50515354B8
:10069000555658595A5B5D5E5F616264656668696C
:1006A0006B6C6D6F7072737577787A7B7D7E8082EC
:1006B000838587888A8C8E8F91939596989A9C9E35
:1006C000A0A2A3A5A7A9ABADAFB1B3B5B7BABCBE45
:1006D000C0C2C4C6C9CBCDCFD1D4D6D8DBDDDFE212
:1006E000E4E7E9EBEEF0F3F5F8FAFDFF00AF00AE5A
:1006F000000000001700150008001A0014002B432A
:10070000000000000A000900070016000400294745
:1007100035002F000500190006001B641D61D85C20
:1007200013502C002A00E3000651000000000000D6
:10073000000000001C0018000C00120013002D43E4
:10074000000000000B000D000E000F0033003447C6
:100750001750300011001000360037743871D95C22
:100760002E0028004C00E70065000000000000009B
:10077000000000001C0013003700360034002B007E
:10078000000000000C00180008001200040029619D
:1007900039002F001B000E000D0014003300E10093
:1007A00003512C002A00E300065100000000000065
:1007B0000000000009000A00060015000F002A00D2
:1007C0000000000007000B001700110016002D713B
:1007D00005513000050010001A0019001D00E50049
:1007E00004512C004C00E7006500000000000000F0
:1007F00000000000000000001F161E1600002B0065
:1008000000000000000044005201510100000000FF
:10081000105000000000E2000000E200E000D85CA0
:1008200000002C000000E3000000000000000000B9
:10083000000000000000F100FA00F900F2000000E2
:10084000000000000000EF00EE00ED00F0000000EE
:1008500000000000000000000000E600E400D95C99
:10086000000028000000E30000000000000000007D
:100870000000000001000100080001001400010058
:1008800000000000010012504F0050000400010061
:1008900010500100010001000100E200E000E10051
:1008A0000100010001000100010000000000000043
:1008B0000000000004044E004B000804A9004C0096
:1008C000000000005000510052004F00AA004900F3
:1008D0000100010050044D004A004F04A8004600EA
:1008E0000100010001000100010000000000000003
:1008F000000000002200210020001F001E00350023
:10090000000000002202210220021F021E02350206
:1009100001002F022F002D0033003302310031027D
:1009200001000100010001000100000000000000C2
:1009300000000000230024002500260027002E00D0
:1009400000000000230224022502260227022E02B4
:100950000100300230002D02360037003800380226
:100960000100010001000100010000000000000082
:100970000000000001004500440043004200010067
:10098000000000000100410040003F003E00010067
:100990000100010001003D003C003B003A00010065
:1009A0000100010001000100010000000000000042
:1009B0000000000001000100010001000100010031
:1009C000000000000100E500E400E200E700010093
:1009D000010001000100010001000100010001000F
:1009E0000100010001000100010000000000000002
:1009F00000000000010001000052010001000100A0
:100A0000000000000100010001520100010001008E
:100A1000010001000100010002520100010001007B
:100A200001000100010001000100000000000000C1
:100A300000000000010001000100010001000100B0
:100A400000000000C35CC85CC65CCA5CC45C0100FA
:100A5000010001000100C95CC75CCB5CC55C010002
:100A60000100010001000100010000000000000081
:100A7000000000002200210020001F001E002B00AB
:100A800000000000310030002F0035021E0200007F
:100A900010502F00380025022E022E002D61D85C48
:100AA00013502C002A00E3000000000000000000AA
:100AB000000000002300240025002600270000007D
:100AC0000000000031022F0230022D0233023402F6
:100AD0000000300036022D00370236003771D95C35
:100AE0002E0228004C00E70000000000000000007B
:100AF00005010980A101850319012AB70015012606
:100B0000B700950175108100C0050C0901A1018590
:100B10000419012AA002150126A002950175108171
:100B200000C005010906A101050719E029E7150024
:100B30002501950875018102950175088101050758
:100B4000190029FF150026FF00950675088100058C
:100B50000819012905950575019102950175039103
:100B600001C009023B00020100A0FA0904000001D3
:100B70000301010009211101000122400007058144
:100B80000308000A09040100010300000009211103
:100B90000100012232000705820320000A12010031
:100BA00002000000081D8D9D9D0100010200010C46
:100BB000034B0079007200690061000000100373AC
:100BC0000070006C00690074004B004200000004DB
:100BD00003090407087F0807003E5B4F5B3E003EA9
:100BE0006B4F6B3E001C3E7C3E1C00183C7E3C184C
:100BF000001C577D571C001C5E7F5E1C0000183CCB
:100C0000180000FFE7C3E7FF00001824180000FFEA
:100C1000E7DBE7FF0030483A060E0026297929264F
:100C200000407F05050700407F05253F005A3CE74F
:100C30003C5A007F3E1C1C0800081C1C3E7F001410
:100C4000227F2214005F5F005F5F0006097F017F43
:100C500000006689956A0060606060600094A2FF91
:100C6000A2940008047E04080010207E20100008D2
:100C7000082A1C0800081C2A0808001E1010101062
:100C8000000C1E0C1E0C0030383E383000060E3EA4
:100C90000E060000000000000000005F00000000E1
:100CA0000700070000147F147F1400242A7F2A12F3
:100CB00000231308646200364956205000000807DC
:100CC000030000001C224100000041221C00002AF9
:100CD0001C7F1C2A0008083E0808000080703000B5
:100CE00000080808080800000060600000201008E4
:100CF0000402003E5149453E0000427F4000007220
:100D000049494946002141494D33001814127F10CA
:100D1000002745454539003C4A49493100412111E8
:100D2000090700364949493600464949291E00004D
:100D300000140000000040340000000008142241AC
:100D40000014141414140000412214080002015964
:100D50000906003E415D594E007C1211127C007F55
:100D600049494936003E41414122007F4141413ECF
:100D7000007F49494941007F09090901003E41417D
:100D80005173007F0808087F0000417F4100002068
:100D900040413F01007F08142241007F4040404015
:100DA000007F021C027F007F0408107F003E41414B
:100DB000413E007F09090906003E4151215E007F46
:100DC000091929460026494949320003017F0103D8
:100DD000003F4040403F001F2040201F003F403860
:100DE000403F0063140814630003047804030061A7
:100DF00059494D4300007F41414100020408102041
:100E000000004141417F00040201020400404040D3
:100E10004040000003070800002054547840007F41
:100E20002844443800384444442800384444287F47
:100E30000038545454180000087E09020018A4A475
:100E40009C78007F080404780000447D4000002066
:100E500040403D00007F102844000000417F4000DA
:100E6000007C04780478007C08040478003844444A
:100E7000443800FC182424180018242418FC007C92
:100E8000080404080048545454240004043F442433
:100E9000003C4040207C001C2040201C003C403096
:100EA000403C004428102844004C9090907C004422
:100EB00064544C44000008364100000000770000F4
:100EC000000041360800000201020402003C262313
:100ED000263C00000000000000404040F0F8F8FF11
:100EE00038FFF8F83FF8F8FF38FFF8F8F0404040D6
:100EF00000000000000080C0C0C0800000C0C080B2
:100F000000000080C0C000C0C0000080C0C0000061
:100F1000000000C0C0C0C0C000C0C0000000000091
:100F200000000000000000000000000000000000C1
:100F300000000000000000000000000000000000B1
:100F400000000000000000000000000000000000A1
:100F50000000C0F0F8FC3E1E06010000007F414189
:100F6000417F007F4141417F000080C0E07E5B4FB8
:100F70005BFEC00000C000DCD7DEDEDED7DC00C0D8
:100F80000000000000000000000000000000000061
:100F9000000000000000000000494949FFFFFFFF7A
:100FA000E0DFBFBF00BFBFDFE0FFFFFFFF494949F0
:100FB00000000000001F3F6060E0BF1F007F7F0750
:100FC0001E381E077F7F007F7F0E1F3B7160000071
:100FD0000000007F7F0C0C0C007E7E007F7E0303F0
:100FE000007F7E03037E7E03037F7E000F3E703C06
:100FF000063C703E0F00327B49493F7E007F7E03F6
:1010000003001E3F69696F26000000000000000019
:101010000000030F1F3F3C7870600000007F4141DB
:10102000417F007F4141417F00307B7F783020202D
:1010300030787F3B0003000F7F0F0F0F7F0F0003FF
:1010400000000000000000000000000000000000A0
:10105000000000000000000000010101070F0F7FE9
:101060000F7F0F0F7E0F0F7F0F7F0F0F0701010103
:10107000000000000000000000000101000000006E
:101080000000000000000000000000000000000060
:101090000000000000000000000000000000000050
:1010A0000000000000000000000000000000000040
:1010B0000000000000000000000000000000000030
:1010C0000000000000000000000000000000000020
:1010D0000000000000000000000000000000000010
:1010E0000000000000000000000000000000000000
:1010F00000000000000000000000000000000000F0
:1011000000000000000000000000000000000000DF
:101110000000000011241FBECFEFDAE0DEBFCDBF1C
:1011200004B603FE27C08091630790916407A091E5
:101130006507B09166078730904BA740B04BD1F45C
:101140001092630710926407109265071092660769
:1011500014BE84B7877F84BF0FB6F894A89580919A
:101160006000886180936000109260000FBEE0E034
:10117000F8E3099511E0A0E0B1E0E8EDFDE502C07B
:1011800005900D92A83CB107D9F727E0A8ECB1E093
:1011900001C01D92A336B207E1F70E94F7160C9426
:1011A000EA2E0C940000882371F19CEF980F913A7D
:1011B00060F4E5EDF2E09281891301C0128231966C
:1011C00092E0EB3DF907B9F70DC090E2980F983027
:1011D00058F4982F977081E001C0880F9A95EAF72C
:1011E0000E947B220C9482229BE5980F933020F47E
:1011F00080E090E00C94AE1F885A873120F480E0A4
:1012000090E00C94981F0895CF93882309F453C05D
:101210009CEF980F913AF8F4C82FE7EDF2E08DEDCE
:1012200092E02191C21721F08E179F07D1F70DC0D0
:10123000E5EDF2E08281C81301C01282319642E0EE
:10124000EB3DF407B9F70E9482226C2F85ED92E006
:101250000E947E1F13C090E2980F983090F4877020
:1012600021E030E0A90102C0440F551F8A95E2F742
:10127000CA0190914003892B80934003CF910C9435
:101280008222EBE5E80FE33040F4F0E0EE59FE4F48
:10129000808190E0CF910C94AE1F885A873158F42A
:1012A000E82FF0E0EE0FFF1FEB59FE4F8081918198
:1012B000CF910C94981FCF9108951F93CF93DF93F4
:1012C000CDB7DEB767970FB6F894DEBF0FBECDBFC0
:1012D0004B8B5C8B6D8B7E8B8F8B611110923F03E0
:1012E00086E09E01235F3F4FD901E82F1D92EA95CA
:1012F000E9F795E0FE017396D90101900D929A9558
:10130000E1F79C894E895F897B897D879E876F87FE
:10131000598B488BF901DE01179601900D928A9541
:10132000E1F7CE0107960E94D72381113EC086E0E7
:10133000FE013796DE01119601900D928A95E1F734
:10134000FF81E8856A857B856115710531F0EF3F86
:1013500031F481E0FF3F19F403C081E001C080E077
:1013600080FD23C020910B0330E0C90101968770F6
:10137000992740913C0350E08417950779F1F98350
:10138000EA837D836C8396E0929FD001939FB00D9A
:101390001124A45FBC4FFE01319601900D929A95E5
:1013A000E1F780930B030E94BD2216E080913C037D
:1013B00090910B038917F9F0189FC0011124845FE5
:1013C0009C4F0E94D7238823B1F080913C0390E08A
:1013D00001968770992780933C03E8CF0E9463268B
:1013E00010920B0310923C03E5E0F3E086E0DF018E
:1013F0001D928A95E9F767960FB6F894DEBF0FBE87
:10140000CDBFDF91CF911F9108958F929F92AF92A0
:10141000BF92CF92DF92EF92FF920F931F93CF93E1
:10142000DF93CDB7DEB72A970FB6F894DEBF0FBEB5
:10143000CDBFFC01D080118183819481892B39F04B
:101440001F3F39F491E00FEFD01203C003C091E0C9
:1014500001C090E090FDD7C57F0185E0DE011696C2
:1014600001900D928A95E1F7F70122818E819F818B
:10147000222349F00E943323082F682F8E819F81F9
:101480000E94A42503C00E947825082FE12FF0E0D8
:1014900018E0019FE00DF11D112463E0EE0FFF1F26
:1014A0006A95E1F7ED0DF11DEE0FFF1FE051F94FC9
:1014B00005911491043F2CE5120759F190F4093D70
:1014C0008CE51807E9F00A3D9CE51907A1F1083DF4
:1014D000ECE51E07B1F506E221EE41EE68ED7CE594
:1014E00014C0063FFCE51F0701F1C8F0073F3CE5CB
:1014F000130739F507E225EE46EE67EF7CE505C0F8
:1015000007E225EE45EE69ED7CE5C7010E94D41F98
:10151000E8C106E221EE40EE64EF7CE5F6CF07E29B
:1015200025EE44EE65EF7CE5F0CF06E221EE42EEDB
:1015300066EF7CE5EACF08E221E045EE6AED7CE566
:10154000E4CFF7018281882309F445C11092C502D6
:101550000430FDE51F0758F40B3F2CE5120760F43B
:10156000C80182509C45449708F01FC105C002364F
:101570003DE5130709F019C10E94F9219093090272
:101580008093080200318CE5180709F4CAC008F0FE
:1015900041C00830ECE51E0709F4A4C0F0F40430A3
:1015A0002CE5120709F48CC068F402308CE51807AA
:1015B00009F482C003301C4509F0E7C0809108029D
:1015C0008260E1C00630ECE51E0709F483C008F034
:1015D00085C0809108028860D6C00C302CE51207C7
:1015E00009F490C068F40A308CE5180709F47EC04D
:1015F00008F084C00E946326809108028068C3C0FE
:101600000E30ECE51E0709F481C008F086C0809119
:10161000080294C00D3F2CE5120709F47BC038F591
:1016200004318CE5180709F49AC058F40231ECE54E
:101630001E0709F47AC008F07EC0809108028F7BF3
:10164000A2C00B3F2CE51207F1F108F03FC00531B5
:101650001C4509F09AC08091080282FB222720F9DC
:1016600091E0922790FB82F990FB83F98CC00130C6
:101670009DE5190709F467C050F4809109020F3FF6
:10168000FCE51F07C1F108F05BC08D7F65C003302A
:101690003DE5130709F471C008F46DC002361D451D
:1016A00009F073C08091080284FB222720F991E0A1
:1016B000922790FB84F967C080910802816063C023
:1016C0008091080216C08091090216C0809109021B
:1016D000826042C080910802806155C080910802FA
:1016E000806251C08091080280644DC080910802E0
:1016F0008860846048C0826081602EC0809108024A
:101700008E7F41C0809108028D7F3DC0809108028C
:10171000877F39C08091090214C0809108028F7EB2
:1017200032C0809108028F7D2EC00E946326809176
:1017300008028F7728C080910802877F8B7F23C0A3
:101740008D7F8E7F09C080910902982F90959170AE
:101750008E7F892B90FB81F98093090216C00E942D
:1017600063268091080287FB222720F991E09227C7
:1017700090FB87F908C061E001C060E08EE090E076
:101780000E947A2E02C08093080260910802109194
:10179000090284E090E00E947A2E612F82E290E0BC
:1017A0000E947A2E0E9463269CC006312CE5120707
:1017B00061F5809140038A7A91E009F490E090937A
:1017C000CA01882311F065E301C069E285ED92E06A
:1017D0000E947E1F17C00631FCE51F0709F06CC090
:1017E0008091CA01882309F498C385E3E5EDF2E00E
:1017F0002BED32E09281891301C0128231962E17AF
:101800003F07C1F70E9482226CC00B352DE51207FD
:1018100009F44CC058F401158CE51807C1F00F3DD0
:101820001C4509F093C00E940A225BC00C35EDE50F
:101830001E0709F43DC00D351D4509F087C0809194
:10184000090282FB882780F991E0892732C00E9433
:1018500063260FEF14E32CE0015010402040E1F725
:1018600000C0000081E08093E00080E28093D80017
:101870001092C9008FE19EE40197F1F700C00000CB
:1018800087E090EBDC018093630790936407A0935B
:101890006507B09366079CE088E10FB6F894A895B9
:1018A000809360000FBE90936000FFCF81E001C085
:1018B00080E00E941B264AC08091400382720A3C4D
:1018C000ECE51E0709F489C378F10E3C9CE5190785
:1018D00009F494C308F42FC3073D3CE5130708F04F
:1018E00036C380913D03877009F48DC3F70182816F
:1018F000882309F488C38091090282FD84C382E0B1
:101900002A960FB6F894DEBF0FBECDBFDF91CF9100
:101910001F910F91FF90EF90DF90CF90BF90AF900D
:101920009F908F900C94FE25063C2CE5120709F43D
:1019300045C308F0F4C2043C9CE5190709F434C31C
:1019400008F037C3033C1C4509F406C3F701828144
:1019500000811181882349F0C8010E943323D82EC9
:10196000682FC8010E94A42504C0C8010E947825E0
:10197000D82EE12FF0E018E0D19EE00DF11D1124EA
:1019800033E0EE0FFF1F3A95E1F7E00FF11DEE0F88
:10199000FF1FE051F94F859194910E9417138C011C
:1019A000982EF701D280A580A2945FE0A5228091B5
:1019B0003D038770B9F0DD20A9F0812F807F80344E
:1019C00021F080E2800F883068F08091090282FD6A
:1019D00009C082E00E94FE2580913D038770CC24DF
:1019E000C3948111C12CB12EB2942FE0B2228B2D61
:1019F00090E08C30910508F051C2FC01EA5AFF4F8B
:101A00000C94CE2E812F807F1F70882311F01295A9
:101A1000107FDD20B9F0112309F42DC280E2800F80
:101A2000883010F0911006C080914003182B10935D
:101A3000400305C080913F03182B10933F030E9481
:101A4000822219C2802F0E94D308112309F426C2D2
:101A5000005E083078F1992069F1109580913F037C
:101A6000182310933F0329C0812F807F1F7080327D
:101A700011F01295107F992021F0F1E09F16D9F115
:101A800049C08091090282FF1BC0DD2069F011234B
:101A900039F080914003182B109340030E9482225A
:101AA00080E00E940409FAC180E00E94D30811235B
:101AB00009F4F4C1812F0E947B220E948222EEC190
:101AC000DD2081F080914103AA2051F001E0A012B5
:101AD00007C0182B181709F4E1C110934103DEC1A8
:101AE000812B10C0AA2021F021E0A21609F4D6C152
:101AF0000E94752227C0DD2041F035E03A1508F438
:101B0000CDC1812F0E947526C9C184E08A1508F4D1
:101B1000C5C118C0DD2049F0AA2099F3F7018581DD
:101B200080FFA9C18F708583ECCFAA2059F00933BB
:101B300009F0B1C1FFEF17EE23E0F1501040204053
:101B4000E1F7A7C1812F0E946E26A8C1812F86953B
:101B50008695837019F0813059F0A0C1DD2019F00D
:101B6000C801937002C080E090E00E94AE1F9CC14B
:101B7000DD2019F0C801937002C080E090E00E945F
:101B8000981F92C1812F837009F069C0D1108AC15A
:101B9000902F929596959770990F990F802F8F702F
:101BA000882E912CA12CB12C092E04C0880C991CD4
:101BB000AA1CBB1C0A94D2F704FF12C04FE050E0ED
:101BC00060E070E004C0440F551F661F771F9A95B0
:101BD000D2F7DB01CA0180959095A095B09503C01E
:101BE00080E090E0DC0116951695412F437042305D
:101BF00019F1C8F4009123021091240220912502CA
:101C000030912602413059F088299929AA29BB2907
:101C1000BC01CD0160237123822393230AC0802A53
:101C2000912AA22AB32ABC01CD01682979298A29DF
:101C30009B290E94592636C188299929AA29BB299E
:101C40000091230210912402209125023091260256
:101C5000BC01CD016027712782279327EACFDD20C1
:101C600019F0812F817001C08695882309F41AC16B
:101C7000902F929596959770990F990F802F8F704E
:101C8000882E912CA12CB12C092E04C0880C991CF3
:101C9000AA1CBB1C0A94D2F704FF12C04FE050E00C
:101CA00060E070E004C0440F551F661F771F9A95CF
:101CB000D2F7DB01CA0180959095A095B09503C03D
:101CC00080E090E0DC0116951695412F437042307C
:101CD000D9F068F50091270210912802209129027D
:101CE00030912A02413059F088299929AA29BB2923
:101CF000BC01CD0160237123822393231EC0802A5F
:101D0000912AA22AB32A13C088299929AA29BB2972
:101D100000912702109128022091290230912A0275
:101D2000BC01CD01602771278227932706C0BC0123
:101D3000CD01682979298A299B290E94CF25B2C023
:101D40001F70DD2039F0812F0E943826802F0E94DD
:101D50007526A8C0802F0E946E26812F0E94D9254B
:101D6000A1C0802F32EF931609F443C0391538F023
:101D700090EF991659F0E1EF9E16B1F177C0F3EFAD
:101D80009F16F1F124EF921659F170C0DD2019F180
:101D900034E03A1508F482C01F7181E090E0A0E0C1
:101DA000B0E0AC01BD0104C0440F551F661F771F92
:101DB0001A95D2F78091270290912802A0912902CA
:101DC000B0912A028A019B01082719272A273B275D
:101DD000C901B80129C025E02A1508F45FC0DCCF8D
:101DE0008091090282FF23C0DD2029F0812F8F71AD
:101DF00030C0DD20D9F3812F8F710E94D9254EC0CC
:101E0000DD2079F01F7181E090E0A0E0B0E0BC013E
:101E1000CD0104C0660F771F881F991F1A95D2F74E
:101E200003C060E070E0CB010E94CF2537C0DD2009
:101E300099F01F71812F0E9438268091090282FD3E
:101E400007C038E0139FC0011124836080933D03D5
:101E5000812F0E94382622C081E00E94FE2581E069
:101E60008A15E0F482E00E94FE2518C0DD2029F0EA
:101E7000AA2009F4BBCF802F14CEAA2009F4BBCF2F
:101E8000893349F49FEFE7EEF3E09150E040F040F2
:101E9000E1F700C00000802F0E94D30888EF8B0D6F
:101EA000843010F40E94C41FCC20A9F080913D031F
:101EB00080FD11C0F70112828595859585950E9458
:101EC0003826C7010E94050A80913D0385958595B6
:101ED00085950E94D92585E0F701DE0111960190D4
:101EE0000D928A95E1F789819A810E947825EA818D
:101EF000F0E008E0809FE00DF11D112483E0EE0F7B
:101F0000FF1F8A95E1F78981E80FF11DEE0FFF1F92
:101F1000E051F94F8591949176C089E267CC083CF5
:101F20002CE5120709F44FC008F052C04BEA5AE200
:101F300062EA7AE260C00C3CFCE51F0709F452C07B
:101F400008F055C04EE75AE262E77AE254C00E3517
:101F50001D4509F4C6CCFACC8091B80280FF1EC0A2
:101F60008E7F8093B8026091B8027091B90280911F
:101F7000BA029091BB020E94BF2A80917B028160CD
:101F800080937B029FEFE0E7F2E09150E040F04069
:101F9000E1F700C000000E94BF20A3CC81608093C5
:101FA000B80261E086952CC044EF5AE26DEF7AE208
:101FB00022C04DEF5AE264EF7AE21DC042EA5AE2D3
:101FC0006BEA7AE218C04AE85AE266E97AE213C09C
:101FD00046E95AE26AE87AE20EC042E75AE26EE760
:101FE0007AE209C046E65CE167E77CE104C047E7C6
:101FF0005CE166E67CE10E94B92073CC61E081E09F
:102000000E94D12A6ECC2A960FB6F894DEBF0FBE7E
:10201000CDBFDF91CF911F910F91FF90EF90DF9097
:10202000CF90BF90AF909F908F90089581110AC07C
:10203000662321F060E070E089EA0FC060E070E0A4
:102040008AEA0BC0813059F4662321F060E070E029
:102050008EE403C060E070E08BE40E947F2681E0A4
:10206000089580E008959091080292FF0DC0282FF6
:102070002871283019F4877F846006C0282F2471C6
:10208000243011F48B7F886093FF0DC0282F2871B6
:10209000283119F4877E846106C0282F24712431E9
:1020A00011F48B7E88612091090220FF0DC0382F2A
:1020B0003871383019F4877F816006C0382F31714C
:1020C000313011F48E7F886021FF0DC0282F2871D8
:1020D000283119F4877E816106C0282F21712131B2
:1020E00011F48E7E886194FD877E0895AF92BF9231
:1020F000CF92DF92EF92FF920F931F93CF93DF93D4
:102100007C015B016A01809103028A3018F001E0D2
:1021100010E002C00AE010E0C1E0D0E0F894B501A0
:10212000C701F60109957894811115C021960C1705
:102130001D0794F0CC9F9001CD9F300D300D1124E0
:1021400080E090E045E34A95F1F7000001968217A0
:102150009307C1F7E3CF81E0DF91CF911F910F91FA
:10216000FF90EF90DF90CF90BF90AF9008958F9247
:102170009F92AF92BF92CF92DF92EF92FF920F9316
:102180001F93CF93DF93FB0180809180A280B38067
:102190009FB7F894C090CD02D090CE02E090CF02CD
:1021A000F090D0029FBFC818D908EA08FB08F4E6EF
:1021B000CF16D104E104F10410F4442351F17B0162
:1021C000C82F880FDD0B01151105A9F08AE08C9F3F
:1021D000F0018D9FF00D1124E050FF4F8381948119
:1021E0008D519E4F428150E00417150708F4A80155
:1021F000B9010E94E12ECE010E94912D892B11F090
:1022000080E008C00E943D1FF701608371838283D4
:10221000938381E0DF91CF911F910F91FF90EF9019
:10222000DF90CF90BF90AF909F908F9008950F93C5
:102230001F93CF93DF931F92CDB7DEB78091C1027A
:1022400089832091F60130E090E041E028173907BA
:1022500009F440E001E010E09E012F5F3F4F6FEF77
:1022600071E086E00E94B7100F90DF91CF911F912F
:102270000F9108950F931F93CF93DF93CDB7DEB7E0
:1022800028970FB6F894DEBF0FBECDBF85E0E8EB10
:10229000F2E0DE01119601900D928A95E1F78091AE
:1022A000790290917A02A0917B028E839F83A88706
:1022B00041E08885811101C040E008E010E09E0106
:1022C0002F5F3F4F6BEF71E085E00E94B7108111E7
:1022D00010927B0228960FB6F894DEBF0FBECDBFDA
:1022E000DF91CF911F910F9108957F928F929F92CE
:1022F000AF92BF92CF92DF92EF92FF920F931F9314
:10230000CF93DF931F92CDB7DEB7762E4A015901E6
:102310006801082F880F110BC8010E94912D892B8D
:1023200009F07EC08AE0809FF001819FF00D1124AA
:10233000E050FF4F458150E04115510511F041E05B
:1023400050E08AE0809FF001819FF00D1124E05061
:10235000FF4F668177816D517E4FCE0101960E94BD
:10236000E12EF40140815181628173812FB7F8948D
:102370008091CD029091CE02A091CF02B091D00277
:102380002FBF841B950BA60BB70B84369105A105B7
:10239000B10540F4B701C6010E94A22099818917B6
:1023A00009F440C0072D770C110BC8010E94912D34
:1023B000892B09F5E114F10401F18AE0809FF00115
:1023C000819FF00D1124E050FF4F458150E0E4164D
:1023D000F50608F4A7018AE0809FF001819FF00DC7
:1023E0001124E050FF4F668177816D517E4FC5010A
:1023F0000E94E12E02C010E001C011E0B701C60149
:102400000E94A22091E02981281390E0192381F0F5
:102410000E943D1FF401608371838283938308C00F
:1024200010E001C011E0A701B601C5010E94E12E34
:10243000812F0F90DF91CF911F910F91FF90EF901F
:10244000DF90CF90BF90AF909F908F907F90089536
:10245000CF92DF92EF92FF920F931F93CF93DF9370
:1024600000D000D0CDB7DEB76B0184E0E82EF12CB0
:1024700004EE11E09E012F5F3F4F4BED51E061E014
:1024800080E00E947511882361F049815A816B8137
:102490007C814093D7015093D8016093D901709308
:1024A000DA014091D7015091D8016091D901709122
:1024B000DA01F60140835183628373830F900F909A
:1024C0000F900F90DF91CF911F910F91FF90EF90A0
:1024D000DF90CF9008958091D601811118C080912E
:1024E000D80080618093D8008AE18A95F1F700C016
:1024F0008091D90080FD02C082E001C081E080931C
:10250000D601823021F40E94CC1C10924E0381E04F
:102510009091D601913009F080E008950F931F93B8
:10252000CF93DF9300D000D0CDB7DEB74091F70155
:102530005091F8016091F9017091FA012FB7F89468
:102540008091CD029091CE02A091CF02B091D002A5
:102550002FBF841B950BA60BB70B84369105A105E5
:10256000B10508F443C00E946B12882319F00E9441
:102570003D1F0EC00E943D1F0091040210910502F4
:102580002091060230910702600F711F821F931F76
:10259000DC01CB010296A11DB11D89839A83AB8317
:1025A000BC8380912B0190912C018D519E4F4091C5
:1025B0002A0150E04530510510F044E050E0BE01E2
:1025C0006F5F7F4F0E94E12E84E090E00E94912D8A
:1025D000892B11F080E00BC00E943D1F6093F70132
:1025E0007093F8018093F9019093FA0181E00F90C4
:1025F0000F900F900F90DF91CF911F910F91089541
:10260000F894E82FE295EF70F0E031A1282F2F70B9
:1026100081E090E001C0880F2A95EAF7982F909505
:10262000932391A392A1892B82A378940895CF93A9
:10263000DF938238910569F1B0F48133910509F493
:102640006FC048F48932910509F465C08A3291055A
:1026500009F46BC08AC08533910509F457C08933EA
:102660009105B9F082C0833E910571F138F4803E46
:102670009105B1F0823E910511F177C0863E91053A
:10268000B9F1873E9105C9F1843E910509F06DC00D
:1026900024C02091080220FD53C021FD51C065C017
:1026A0008091080280FD46C08091090280FF48C0E9
:1026B0008091080284FD3FC183EE90E03EC180918D
:1026C000080282FF3AC0F4CF8091080282FD35C033
:1026D0008091090280FD34C0EBCF8091090281FF17
:1026E00035C08091080284FD26C187EE90E025C1A7
:1026F0008091080283FF27C0F4CF8091080283FDF8
:1027000022C08091090281FD21C0EBCF8091080297
:1027100085FD1FC021C08091080285FD1DC019C024
:102720008091080286FD1BC01DC08091080286FDB5
:1027300019C015C089E390E000C182EE90E0FDC0B1
:1027400080EE90E0FAC086EE90E0F7C084EE90E074
:10275000F4C089E290E0F1C085E390E0EEC08AE247
:1027600090E0EBC081E390E0E8C0811532E593078B
:1027700008F069C0811541E5940728F0982F882753
:10278000816F906ADAC0883E910568F5803E9105B8
:1027900008F0D3C0883A9105B8F4853A910548F01D
:1027A000855AE82FF0E0EE59FE4F808190E090646A
:1027B000C4C08130910509F4BBC008F4BCC08430AA
:1027C000910508F4B8C0B9C08F3B910508F0B3C0BB
:1027D000885AE82FF0E0EE0FFF1FEB59FE4F808183
:1027E00091819464AAC0811520E59207F0F09C01C4
:1027F00074E0369527957A95E1F7922F9370482FDC
:10280000437021E030E002C0220F331F4A95E2F707
:102810003C68392B8F70982F9695969540E2949F3F
:10282000C0011124822B932B88C0811530E49307BB
:1028300018F09F70906A81C09C013A9521153F4124
:1028400008F47BC078C0EC01C11586E5D807E8F52F
:10285000C11525E5D20748F08C2F0E9433108F71E7
:1028600090E0982F8827906268C0C11534E5D3079F
:1028700028F09C2F8827846F906A5FC0AE01437058
:1028800055272C2F26952695C115D34578F481E040
:1028900090E002C0880F991F4A95E2F740E2249F1A
:1028A00090011124822B932B9C6847C081E090E01B
:1028B00002C0880F991F4A95E2F740E2249F9001D9
:1028C0001124822B932B9A6838C0C1152AE5D207B0
:1028D000F8F4C11539E5D30790F08C2F8F700E9462
:1028E000331094E0D695C7959A95E1F7CF70D0E074
:1028F000DC2FCC27D0699E01282BC9011EC0C11531
:1029000048E5D407C0F09C2F8827806F906A15C0D7
:10291000CE0190568115904270F48D2F8F710E94D8
:102920003310282F2F71CE0199279062922B05C06A
:1029300081E090E002C080E090E0DF91CF910895C7
:102940000C943D1FCF92DF92EF92FF920F931F9353
:10295000CF93DF931F92CDB7DEB7EE24E394F12C33
:1029600009EE11E09E012F5F3F4F4FED51E063E014
:1029700082E00E947511C82E882379F1D09015024B
:102980008D2D90E09C01225E3D4F79011981F90166
:102990008081181B012F80E010165CF40150F701B4
:1029A00080818F5F808360E08D2D0E94161081E012
:1029B000F3CF912F17FD90E0191B112359F01F5FE2
:1029C000F70180818150808361E08D2D0E94161077
:1029D00081E0F3CF81110E94A0148C2D0F90DF9124
:1029E000CF911F910F91FF90EF90DF90CF900895BE
:1029F0007F928F929F92AF92BF92CF92DF92EF928F
:102A0000FF920F931F93CF93DF93CDB7DEB72C9731
:102A10000FB6F894DEBF0FBECDBFAE014F5F5F4F64
:102A20007A0188E0DA011D928A95E9F705E911E05B
:102A30006A0189E9A82E81E0B82E88248394912C1C
:102A4000F80180818F3F09F441C0F894E82FE295A6
:102A5000EF70F0E021A18F70A40102C0440F551F58
:102A60008A95E2F7CA01922F982B91A392A18095A3
:102A7000892382A3789400C0EDE9F1E0712C31E064
:102A800021912F3F89F0A22FA295AF70B0E09096D0
:102A90008C9190E02F7002C0959587952A95E2F76A
:102AA00080FD02C0832F01C080E0782A330F51E0FF
:102AB000E53AF50729F7D8018C918F3F11F00E9474
:102AC0000013B0EABA95F1F7F60170820F5F1F4F5D
:102AD000FFEFCF1ADF0AA016B10609F0B1CF48E028
:102AE00050E0B7018AE092E00E94D42E8C01892B3D
:102AF00041F088E0F701AAE0B2E001900D928A95DA
:102B0000E1F7F09013020115110549F081E080937F
:102B1000CE010E94491F9093CD018093CC018091FA
:102B2000CE018823B1F08091CC019091CD010E941B
:102B30002E1F059770F0AAE0B2E0EF2DF0E0EA5EFC
:102B4000FD4F8D91819322E0AE30B207D1F7109204
:102B5000CE010115110509F01DC10E946B12E09113
:102B60001302882309F479C019861A861B861C86ED
:102B70000E2F10E00A5E1D4F809103028A3058F438
:102B800048E252E1BE01675F7F4FC8010E947610A4
:102B9000882399F10AC08091CF019091D0010E94C1
:102BA0002E1F843F914060F73AC042EA54E1BE01D3
:102BB000675F7F4FC8010E9476108823F1F04EE8CE
:102BC00052E1BE01675F7F4FC8010E9476108823E3
:102BD000A1F04AE351E1BE01675F7F4FC8010E9447
:102BE0007610882351F047E151E1BE01675F7F4FC6
:102BF000C8010E9476108111D0C0809103028F3FDE
:102C000019F08F5F80930302809103028A3008F4E9
:102C1000C6C00E94491F9093D0018093CF0180913C
:102C2000D501811102C000E0CDC0FE01399684E0DB
:102C3000DF011D928A95E9F71092D501E091120209
:102C4000F0E0EA5EFD4F89859A85AB85BC8580837F
:102C50009183A283B38301E0B5C0F0E0EA5EFD4F4B
:102C6000F89484E0A4EEB1E001900D928A95E1F72A
:102C700064E070E084EE91E00E94A2208093E30182
:102C80007894F894E0912102F0E0E25EFD4F8081BB
:102C900089878093E90161E070E0CE0109960E9486
:102CA000A2208093E8017894F894C090EA01D09033
:102CB000EB01E090EC01F090ED018091D101909159
:102CC000D201A091D301B091D401C816D906EA0669
:102CD000FB06D1F0C092D101D092D201E092D30193
:102CE000F092D4010E946B1281110EC00E943D1F10
:102CF000C61AD70AE80AF90AC0920402D09205025D
:102D0000E0920602F09207027894F8948091F5011F
:102D1000882399F180FF22C09091EE018091B80242
:102D200090FF09C081608093B80260E0892F86958A
:102D30000E94D12A13C08E7F8093B80280917B02BB
:102D4000816080937B02BFEFE0E7F2E0B150E040AA
:102D5000F040E1F700C000000E94BF208091F50123
:102D600081FF09C020E04091F1016091F001809164
:102D7000EF010E940B211092F5017894F894809154
:102D8000F601882319F00E947C2002C00E94622074
:102D9000789418C001E010E015C0109203028091F1
:102DA000120290E044E050E0BE01675F7F4F8A5E10
:102DB0009D4F0E94D42E21E02093D501892B09F04C
:102DC0003DCF31CF802F2C960FB6F894DEBF0FBECB
:102DD000CDBFDF91CF911F910F91FF90EF90DF90CA
:102DE000CF90BF90AF909F908F907F900895CF939A
:102DF000DF93CDB7DEB72C970FB6F894DEBF0FBECA
:102E0000CDBF84B7877F84BF0FB6F894A895809113
:102E10006000886180936000109260000FBE90E0B7
:102E200080E80FB6F89480936100909361000FBE24
:102E300085B7806885BF85B7806885BF81E390E1ED
:102E40009093C9018093C8010E94CC1C0E94721DFE
:102E50008091E20084608093E200789480914E0338
:102E60008823A1F01091E9001F709091EC00892F48
:102E7000817090FD80E8182B1092E9008091E800A5
:102E800083FD0E94A5271F701093E90082E084BD96
:102E900093E095BD9AEF97BD80936E001092040267
:102EA0001092050210920602109207020E946B1205
:102EB0008093460180914601882321F010925C01A5
:102EC0008AE003C08AE080935C0180935D010E94E8
:102ED0006B1281110E94842C8091460180914601E1
:102EE000811102C094E001C090E09093130284E04D
:102EF000891B8093120205E911E0F9E9EF2EF1E058
:102F0000FF2ED8018D918D018F3F11F00E9400138B
:102F1000E016F106B1F70DE911E0E5EAEE2EE1E089
:102F2000FE2EF80181918F018F3F11F00E94001356
:102F3000E016F106B1F788E0E6E1F2E0DF01082FE4
:102F40001D920A95E9F7EAE0F2E0DF011D928A9509
:102F5000E9F780E090E00E94742E893E9E4F11F0C8
:102F60000E940A2282E090E00E94662E8093700206
:102F70000E94F921909309028093080283E090E077
:102F80000E94662E682F70E080E090E00E94592633
:102F90000E946B12811102C00E94872C82E08093F4
:102FA0006B0280E8809358030E94182B6DE070E05C
:102FB00085E191E00E945027892B09F043C0809160
:102FC0006B0263E070E081FD3AC082E191E00E9413
:102FD0005027892BB9F56DE070E082E091E00E9406
:102FE0005027892B79F50E943D1FDC01CB01805AC7
:102FF0009541AF4FBF4F8093BD029093BE02A09307
:10300000BF02B093C002EBE5F3E080E094E0DF01A3
:103010008C011D9201501040E1F7F0936207E0939C
:1030200061078FEF9FEF90935A038093590381E0DC
:103030008093C2028093C10210926C0203C08FE0A1
:1030400091E0C5CF80911402811139C080E090E0F9
:103050000E94742E893E9E4F21F00E940A220E94F7
:10306000012B88E090E00E946E2E6093B80270936E
:10307000B9028093BA029093BB0280917B02836075
:1030800080937B026E7F71F40E94012B88E090E0B8
:103090000E946E2E6093B8027093B9028093BA02B8
:1030A0009093BB020E94B42A8091B80280FF04C0B2
:1030B00060E086950E94D12A81E08093140280917D
:1030C0004601811106C085E38093540186E6809312
:1030D000530120915401E22FE295EF70F0E031A10D
:1030E0002F7081E090E0AC01022E01C0440F0A94E1
:1030F000EAF7542F5095352331A332A1432B42A335
:1031000040915301A42FA295AF70B0E091963C91ED
:1031100091974F70042E01C0880F0A94EAF7982FF8
:103120009095932391969C93919792969C919297C8
:10313000892B92968C93929780A190E002C09595EE
:1031400087952A95E2F7817090962C9130E002C025
:10315000359527954A95E2F720FD02C090E001C021
:1031600092E0892B809322029091460181E098277A
:1031700090932102891B8093150287E491E090933C
:10318000C9028093C80260E4C62E88248394912CDF
:1031900080914E03853009F046C000E112E1809134
:1031A0004E03853009F03BC080914E03843029F1F5
:1031B0000E9462201092CC0228E130E00FB6F89411
:1031C000A895209360000FBEC092600083B7817FF6
:1031D000846083BF83B7816083BF7894889583B709
:1031E0008E7F83BF0FB6F894A895809160008861A8
:1031F00080936000109260000FBE80914D03882381
:1032000009F4CDCF0E94F814E6E1F2E0819181113A
:10321000E3C26EE172E06E177F07C1F7C0CF0E9474
:1032200063260E94C41F0E94F814B82E81110E94C8
:103230003D1FE6E1F2E0A1E7B2E000E010E0A02EE1
:10324000D1908D918D2509F454C0E12CFF24F39485
:10325000982F9F2109F448C00E946B12882399F08F
:10326000E982AA82DF2081E009F480E08B830E945A
:10327000491F8160782F9D838C8349815A816B819E
:103280008D810E945D09F801EF58FD4F8081F8267D
:10329000F082E09122025E2F550F550F20915401CC
:1032A000E22FE295EF70F0E080A190E02F7002C075
:1032B000959587952A95E2F781709927409153015A
:1032C000E42FE295EF70F0E020A130E04F7002C0F3
:1032D000359527954A95E2F7F901E170FF2720FF20
:1032E0001FC0E2E0F0E01CC0E394FF0C78E0E712BE
:1032F000AFCF0F5F1F4F0830110509F0A0CF8FEF40
:103300008E838F8318860E94491F8160782F9A8749
:1033100089874E815F8168858A850E945D09B9CF62
:10332000E82BF92BE52BE093220210912102EF709C
:10333000F0E0EB55FE4F908180912002890F809341
:103340002002843074F0E12FF0E0E25EFD4F8081D6
:103350008F5F808360E0812F0E941610DD24D3945C
:1033600001C0D12C809120028D3F6CF4E12FF0E060
:10337000E25EFD4F80818150808361E0812F0E9459
:103380001610DD24D39480912002082E000C990B96
:1033900064E070E00E94BA2E80932002D1100E9457
:1033A000A0148091C202882309F405C280916D02A5
:1033B00090916E020E942E1FC29708F4FBC00E94DB
:1033C000491F90936E0280936D028BE593E090937A
:1033D0006207809361070E946B12882309F4ABC0D7
:1033E0008CEA95E00E9442278DE995E00E944227F1
:1033F00085E995E00E9442274091270250912802DA
:103400006091290270912A028091230290912402F6
:10341000A0912502B0912602842B952BA62BB72BC9
:10342000AD0166277727411551056105710521F02A
:10343000DB01CA01E0E101C0E0E0492F5A2F6B2F08
:103440007727411551056105710519F0E85FDB012A
:10345000CA01AC01BD0134E0769567955795479553
:103460003A95D1F7411551056105710519F0EC5FE9
:10347000DB01CA01AC01BD0122E076956795579545
:1034800047952A95D1F7411551056105710519F048
:10349000EE5FDB01CA01B695A79597958795892BB5
:1034A0008A2B8B2B09F0EF5F8E2F90E087309105F0
:1034B000D0F4FC01EE59FF4F0C94CE2E8DE895E030
:1034C00014C085E895E011C089E795E00EC084E757
:1034D00095E00BC08FE695E008C085E695E005C055
:1034E0008DE595E002C082E595E00E9442270E94AA
:1034F000C41F81FB002700F982FB112710F980FD12
:1035000003C082E495E002C08AE495E00E9442276D
:10351000011103C082E395E002C08AE395E00E94B6
:103520004227111103C082E295E002C08AE295E0D1
:103530000E9442273FC080916107909162078B559E
:1035400093409C013C5F2130344028F020E034E07F
:10355000281B390B02C020E034E0609159037091C0
:103560005A03DC01A55ABC4FAC01280F391F421782
:103570005307E0F4FA01E81BF90BEE5DFE4FE4910E
:10358000FC91EF1779F0EC93FA0116E0F695E795C8
:103590001A95E1F7840102C0000F111FEA95E2F7C6
:1035A000602B712B4F5F5F4F1196E1CF70935A03E1
:1035B000609359038091C202882309F4E1C02091ED
:1035C000590330915A032115310509F4D9C080916E
:1035D0006C028111D5C0282E312C7401082E02C036
:1035E000EE0CFF1C0A94E2F7A9014E215F21452B46
:1035F00011F48F5FF0CF90916B02910166E0220F82
:10360000331F6A95E1F790FD13C08295880F880FEC
:10361000807480935701220F232F221F330B319583
:1036200020935A01815C8093580110925B0112C073
:1036300046E0369527954A95E1F7220F220F220F93
:103640002093570110925A01295F2093580187E077
:1036500080935B0124E630E047E050E065E571E0EF
:1036600088E70E94CF2B892B09F08AC080916B02DA
:1036700080FD23C0C10126E0880F991F2A95E1F73C
:10368000AC01455A5C4F04E610E020E430E060E411
:1036900088E70E94F62B892B09F072C00E947C20DB
:1036A000E094F0948091590390915A03E822F92212
:1036B000F0925A03E092590363C0EBE2F2E0DF01BB
:1036C0000C2D1D920A95E9F786E0220C331C8A9591
:1036D000E1F72DEB31E03C872B8745EB51E0AB85E3
:1036E000BC858D91BC87AB87FA019191AF019101A7
:1036F000290F311D8901055A1C4F280190E0855D75
:103700009D4FFC0107E09F01281B390B782C01C05D
:10371000770C2A95EAF7B201A12CDB011D91BD01BE
:103720001721202F2A192770622E022E000C330B2E
:10373000B12F01C0BB0F6A94EAF76B2E319521952A
:1037400031092770332701C016952A95EAF7612AB7
:103750001081612A6082A39418E0A112DECF01508B
:1037600031960F3F81F62B853C85255C314009F071
:10377000B6CF04E610E020E430E04BE252E087CF21
:103780008091C1028823B9F00E943D1F0091BD02C3
:103790001091BE022091BF023091C002DC01CB012A
:1037A000801B910BA20BB30B8F3F9F4FAF4FBF47B7
:1037B00010F40E946220B11001C0D1100E947C2040
:1037C0000E94C41F90916F02891709F4E1CC0E94F6
:1037D000C41F80936F02DCCC09BD19BD09B400FE83
:1037E000FDCF8091D8008F7D8093D8008091E0003C
:1037F00082608093E0008091E00081FDFCCF0E9418
:103800006326CDCC08950895809143030895809355
:10381000D1027093D3026093D20280914E03843020
:1038200001F582E08093E9008FEF9091E8008150EC
:1038300095FD06C095ED9A95F1F700008111F5CF41
:103840008091E80085FF0DC040E050E063E070E04B
:1038500081ED92E00E9479278091E8008E77809335
:10386000E8000895BC0184E00C94071CBC0183E0CF
:103870000C94071CCF93DF9321E02093E9002FEFF6
:103880003091E800215035FD06C035ED3A95F1F74D
:1038900000002111F5CF2091E80025FF14C0EC01B4
:1038A00040E050E068E070E00E9479278091E800F5
:1038B0008E778093E80088E0FE01A4E4B3E00190F5
:1038C0000D928A95E1F7DF91CF9108958091BC0226
:1038D000882319F081508093BC026091B8027091E6
:1038E000B9028091BA029091BB020C94BF2A8091D8
:1038F000BC02833018F48F5F8093BC026091B802E1
:103900007091B9028091BA029091BB020C94BF2AC7
:103910001F920F920FB60F9211242F933F934F9344
:103920005F936F937F938F939F93AF93BF93CF9347
:10393000DF93EF93FF93C091E900CF708091EC008B
:10394000D82FD17080FDD0E81092E9008091F0006E
:10395000877F8093F00078940E94A5271092E90059
:103960008091F00088608093F000CD2BCF70C093E1
:10397000E900FF91EF91DF91CF91BF91AF919F91BE
:103980008F917F916F915F914F913F912F910F9008
:103990000FBE0F901F901895E8EDF0E080818E7FAC
:1039A00080831092E2001092DA001092E100A0EE03
:1039B000B0E08C9181608C9380818F77808319BC7B
:1039C000A7EDB0E08C918E7F8C9380818F7E808379
:1039D0001092D40208952091E4003091E50095E61C
:1039E0004091EC00842F817040FF23C08091E8005B
:1039F00080FD1DC080914E03882399F0853099F099
:103A00008091EB0085FD11C04091E4005091E500EC
:103A10002417350729F3915011F09A01E1CF84E082
:103A2000089582E0089583E0089581E0089580E09C
:103A300008954091E80042FFDDCF08958091500342
:103A400087FF11C08091E80082FD05C080914E0380
:103A50008111F8CF11C08091E8008B770BC0809165
:103A60004E03882349F08091E80080FFF8CF8091D1
:103A7000E8008E778093E8000895982F973068F5D6
:103A80009093E900981739F07091EC002091ED00C7
:103A90005091F00003C0242F762F50E021FD02C08A
:103AA0009F5FECCF3091EB003E7F3093EB00309185
:103AB000ED003D7F3093ED003091EB0031603093AD
:103AC000EB007093EC002093ED005093F0002091F8
:103AD000EE0027FDE5CF80E008958F708093E90028
:103AE00081E00895CF92DF92EF92FF920F931F93A0
:103AF000CF93DF93C8EDD0E088818F7E8883E7ED98
:103B0000F0E080818160808384E082BF81E08093E7
:103B1000D40288818E7F888302EE10E0F801108243
:103B20001092DA0081EEC82ED12CF6011082888125
:103B30008F77888388818068888388818F7D888358
:103B400019BC10924E0310924F0310924D03109225
:103B50004C0390EEE92EF12CF70180818B7F80835E
:103B600088818160888342E060E080E00E943D1DA2
:103B7000F60180818E7F8083F8018081816080835F
:103B8000808188608083F70180818E7F8083888137
:103B900080618883DF91CF911F910F91FF90EF900B
:103BA000DF90CF9008951F920F920FB60F921124BD
:103BB0002F933F934F935F936F937F938F939F9335
:103BC000AF93BF93EF93FF938091E10082FF09C011
:103BD0008091E20082FF05C08091E1008B7F80939D
:103BE000E1008091DA0080FF2AC08091D80080FF38
:103BF00026C08091DA008E7F8093DA008091D90010
:103C000080FF18C080E189BD82E189BD09B400FE52
:103C1000FDCF81E080934E038091D40281110FC0CB
:103C20000E94CC1C0E94721D8091E20084608093EF
:103C3000E20005C019BC10924E031092D40280918C
:103C4000E10080FF17C08091E20080FF13C08091E7
:103C5000E2008E7F8093E2008091E2008061809399
:103C6000E2008091D80080628093D80019BC85E082
:103C700080934E038091E10084FF30C08091E20088
:103C800084FF2CC080E189BD82E189BD09B400FEBA
:103C9000FDCF8091D8008F7D8093D8008091E10086
:103CA0008F7E8093E1008091E2008F7E8093E2001E
:103CB0008091E20081608093E20080914F0388232D
:103CC00011F084E007C08091E30087FD02C081E02D
:103CD00001C083E080934E0380914E038091E10008
:103CE00083FF27C08091E20083FF23C08091E10021
:103CF000877F8093E10082E080934E0310924F0310
:103D00008091E1008E7F8093E1008091E2008E7FC0
:103D10008093E2008091E20080618093E20042E0C3
:103D200060E080E00E943D1D8091F00088608093FB
:103D3000F000FF91EF91BF91AF919F918F917F9193
:103D40006F915F914F913F912F910F900FBE0F9008
:103D50001F90189520915603309157032617370767
:103D600048F06115710539F42091E8002E77209311
:103D7000E80001C0B901FC0120E06115710579F18D
:103D800080914E038823F1F18530F1F18091E800B4
:103D900083FD3CC08091E80082FD2EC08091E80048
:103DA00080FFEBCF2091F3008091F20090E0922B06
:103DB0006115710551F08830910538F421912093F7
:103DC000F100615071090196F3CF21E0089709F0E5
:103DD00020E08091E8008E778093E800CECF21111B
:103DE000CFCF0AC080914E03882361F0853061F007
:103DF0008091E80083FD0AC08091E80082FFF2CF45
:103E000080E0089582E0089583E0089581E00895B8
:103E100078941F920F920FB60F9211248F939F9355
:103E2000AF93BF938091CD029091CE02A091CF022B
:103E3000B091D0020196A11DB11D8093CD02909347
:103E4000CE02A093CF02B093D002BF91AF919F91C9
:103E50008F910F900FBE0F901F9018959C014FB738
:103E6000F8948091CD029091CE02A091CF02B091B2
:103E7000D0024FBF821B930B08952FB7F894609127
:103E8000CD027091CE028091CF029091D0022FBFCF
:103E900008952FB7F8948091CD029091CE02A09111
:103EA000CF02B091D0022FBF08951F920F920FB68C
:103EB0000F9211248F939F93AF93BF938091CC0265
:103EC000811113C08091CD029091CE02A091CF02BA
:103ED000B091D0024196A11DB11D8093CD02909367
:103EE000CE02A093CF02B093D002BF91AF919F9129
:103EF0008F910F900FBE0F901F9018959C01FC01A1
:103F000032969FEF80E04191461789F09F3F19F468
:103F1000411101C0982F8F5F8630A9F79F3F39F07C
:103F2000F901E90FF11D97FDFA956283089508954F
:103F30002091CA023091CB022817390771F0909373
:103F4000CB028093CA02E091C802F091C902309777
:103F500021F00084F185E02D099408952091C60296
:103F60003091C7022817390771F09093C7028093E8
:103F7000C602E091C802F091C902309721F0068094
:103F8000F781E02D099408950E946B12882351F067
:103F9000E091C802F091C902309721F00190F081C0
:103FA000E02D099480E008950F931F93CF93DF9342
:103FB000C42FD22FFC0182818823C9F04093C5020F
:103FC0000E94491F9093C4028093C30280E28C0F29
:103FD000883008F072C0C77081E001C0880FCA95B0
:103FE000EAF7DF91CF911F910F910C947526809184
:103FF000C50248133DC08091C3029091C4020E9443
:104000002E1F883C9105A0F510E21D0FCD17E9F099
:1040100080E28C0F883040F4C77081E001C0880FC7
:10402000CA95EAF70E946E26183090F581E09D2F20
:10403000977001C0880F9A95EAF70E947526093398
:1040400069F560E570E089E32CC0093319F460E597
:1040500070E002C060E070E0802F0E947F26183080
:1040600060F5D77081E001C0880FDA95EAF70AC0E1
:1040700080E28C0F883008F5C77081E001C0880F9E
:10408000CA95EAF7DF91CF911F910F910C946E269C
:10409000093351F460E570E089E309C060E070E045
:1040A000802F0E947F26DDCF60E070E0802FDF91BF
:1040B000CF911F910F910C947F26DF91CF911F918B
:1040C0000F9108958091C2029091C102882389F0D6
:1040D000992369F062E070E08EEE96E00E9450272E
:1040E000892B19F08091C10208951092C10290911C
:1040F000C10281E0892708958091C2028823F9F0E6
:104100000E943D1FDC01CB01805A9541AF4FBF4F4C
:104110008093BD029093BE02A093BF02B093C002F1
:104120008091C10281110BC062E070E08CEE96E0DC
:104130000E945027892B19F481E08093C10280915D
:10414000C1020895FC01680F791F8FEF91E3E61714
:10415000F70771F02191822728E030E087FF03C044
:10416000880F892701C0880F21503109B9F7EFCF97
:104170000895882311F0FA0101C0FB0109943091E0
:104180005D018091B80280FF16C0E0915C0163E0A0
:10419000E69FF0011124E458FD4F539A8BB1877FBD
:1041A0009BB198602FB7F894AF0163E0369F400D44
:1041B000511D112414C080915E0190915F018917F7
:1041C00020F7E82FF0E0AF01440F551FE40FF51F73
:1041D000E458FD4F1182108212828F5FF0CFE417F6
:1041E000F50789F0319168E09BB9000000C037FF06
:1041F0008BB9330F000000C000C000C08BB900C0F5
:104200006A9591F7ECCF2FBF8FE594E00197F1F716
:1042100000C0000008959F92AF92BF92CF92DF92AC
:10422000EF92FF920F931F93CF93DF939091B80279
:1042300090FFD3C0922E142FC62FD82FE92FE695CA
:10424000F0E0EB53FE4F8081809379029E7F9230A5
:1042500009F095C0E42FF0E0611106C0E451FA4F77
:10426000E491FE2F2E2F72C0E62EF12CE451FA4F6E
:10427000F4910F2FCF2ED12C26E0D29FC001112414
:104280002FEF30E0B9010E94492E4BEA4603C001EE
:10429000479F900D11248D0F911D8D0F911DB82EEC
:1042A000BB0CB80EA9014E195F094C9DC0014D9D74
:1042B000900D5C9D900D1124E92FCB9DA001112440
:1042C000452F5527D901A41BB50BAC9DA001AD9D71
:1042D000500DBC9D500D1124D901AB19B1095D01E0
:1042E000AE9CD001AF9CB00DBE9CB00D1124AB2F85
:1042F000BB272A1B3B0B2C9DD0012D9DB00D3C9D57
:10430000B00D11242B2F6230710591F048F4611526
:104310007105E1F061307105B9F42F2FF52F16C04A
:104320006430710569F040F06630710579F00CC0B9
:104330002F2FF92FEB2F0AC0F92FE02F252F06C0C2
:10434000292FEF2FFB2F02C0292FE52F80915E012F
:1043500090915F01891788F4A82FB0E0AD01440F58
:10436000551FA40FB51FA458BD4F1196FC9311976C
:104370002C931296EC938F5FEDCF0E94BF2080911B
:10438000B902D81308C08091BA02C81304C0809142
:10439000BB02181729F080917B02826080937B0218
:1043A000D093B902C093BA021093BB029920A9F02E
:1043B0006091B8027091B9028091BA029091BB02EB
:1043C000DF91CF911F910F91FF90EF90DF90CF90F1
:1043D000BF90AF909F900C94BF2ADF91CF911F9117
:1043E0000F91FF90EF90DF90CF90BF90AF909F9094
:1043F0000895CF9384E090E00E94662EC82F82E259
:1044000090E00E94662E2C2F30E0A901582BCA01A3
:10441000CF91089569EE7EEF80E090E00E94982EA3
:1044200060E082E090E00E947A2E60E083E090E01D
:104430000E947A2E109223021092240210922502DA
:104440001092260260E084E090E00E947A2E60E004
:1044500082E290E00E947A2E60E085E090E00E9487
:104460007A2E60E086E090E00E947A2E6FEF87E07F
:1044700090E00E947A2E40E050E0BA0188E090E09F
:104480000E948C2E60E08DE090E00E947A2E40E049
:1044900050E0BA0188E190E00E948C2E60E087E154
:1044A00090E00E947A2E40E050E0BA018CE190E06A
:1044B0000E948C2E60E070E080E290E00E94982ED6
:1044C00040E050E0BA0188E190E00E948C2E40E08C
:1044D00050E0BA018FE090E00E948C2E40E050E066
:1044E000BA0183E190E00C948C2E809141038111FC
:1044F0001092410308958095909140038923809301
:10450000400308959091400380913F03892B2091AF
:104510003E03982F922B9093D502809141038823DC
:1045200089F0892B8093D502E7EDF2E097E080E0F7
:10453000915029F021912223D9F38F5FF9CF811176
:104540000E947522E091C802F091C902309731F0C3
:104550000280F381E02D85ED92E00994089580E0DA
:1045600090E00E94AE1F80E090E00E94981F1092A1
:104570003F0310923E030C94822280913C03909161
:104580000B03891719F08F5F8770FBCF08950F9386
:104590001F93CF93DF9380910A0382958F7009F068
:1045A0005DC080910703882309F458C080913C03C3
:1045B00010910B036091050370910603C0910803ED
:1045C000D091090391E06F3F09F090E0292F06E0B8
:1045D000811709F443C0209721F07F3F21F030E09C
:1045E00003C031E001C0322F90E030FD34C0089F9D
:1045F000F001099FF00D1124DF01A45FBC4F11965B
:104600003C911197371327C03C91361324C0129662
:104610003C91129731111FC013964D915C911497E4
:104620004C1B5D0B483C5105B0F480910A038F7020
:10463000806180930A03EF5EFC4F80818F70806100
:10464000808385E093E00E94050ADF91CF911F915E
:104650000F910C94BD2201968770BACFDF91CF9154
:104660001F910F9108958F929F92AF92BF92EF92F8
:10467000FF920F931F93CF93DF9380902702909028
:104680002802A0902902B0902A0240912302509162
:1046900024026091250270912602842A952AA62A76
:1046A000B72ACFE1D0E0E92EF12C082F10E0D50198
:1046B000C4010C2E04C0B695A795979587950A94CA
:1046C000D2F780FD04C0219790F780E01AC0FE0168
:1046D00083E0EE0FFF1F8A95E1F7EE0DFF1D93E0DB
:1046E000EE0FFF1F9A95E1F7E00FF11FEE0FFF1F8E
:1046F000E051F94F859194910E941713019719F396
:104700008C2FDF91CF911F910F91FF90EF90BF9071
:10471000AF909F908F900895CF93DF93D82FC92F9C
:104720000E943323EC2FF0E098E0899FE00DF11D0B
:10473000112483E0EE0FFF1F8A95E1F7ED0FF11DC5
:10474000EE0FFF1FE051F94F859194910E941713CE
:10475000DF91CF910895FC01808191810E948C238B
:10476000292F2F70E92FE295EF704E2F50E0FA01BC
:104770003297EE30F105B8F4E759FF4F0C94CE2E86
:10478000803F99F018F4883E70F40FC0843F59F4CC
:104790000CC0883E50F0813F31F407C0822F8695CF
:1047A00086958695089580E0089581E008959F920A
:1047B000AF92BF92CF92DF92EF92FF920F931F932F
:1047C000CF93DF93CDB7DEB761970FB6F894DEBF16
:1047D0000FBECDBF8C0185E0F801DE011D96019072
:1047E0000D928A95E1F7F801E280909105036091BE
:1047F000060340910803509109034115510531F01A
:104800006F3F31F481E09F3F19F403C081E001C0A4
:1048100080E0F82FF1709F2E80FD1AC1F8013081E1
:104820002181C380D48085E0A82E83E0B82EF0904B
:104830000703F601E41BF50BFF2009F4C6C08091C5
:104840000A03E83CF10508F091C0482F407F09F0C9
:1048500050C0621311C093130FC0FE2CE1100CC0A6
:104860008F70806180930A03C5010E94050A8091C0
:104870000A03F801858329C1CD2831F02F3F31F497
:1048800081E03F3F19F403C081E001C080E080FD7A
:1048900003C081E08E2502C080E090E0F82FF17027
:1048A000FF2E80FF1CC080913C0340910B0356E01B
:1048B000841709F4E8C090E0589FF001599FF00D6B
:1048C0001124E45FFC4F6181261306C060816313ED
:1048D00003C06281E61203C001968770E9CFFE2C07
:1048E000EE2009F4F2C080910A03816080930A03EC
:1048F00049C0621306C0931304C0E11002C0F8015E
:1049000086C0C8010E94AB23882351F1EE2041F1FB
:1049100020910A03822F82958F7090E0029774F0A5
:10492000809105039091060398878F831986DB8613
:10493000CA862C87CE0107960E94050A86E0F801F8
:10494000A5E0B3E001900D928A95E1F70E94C7229D
:104950000AC06217C9F0C8010E94AB2381111EC0B2
:10496000C8010E94050AFF24F394AFC0482F407F7E
:1049700081F785E093E00E94050A86E0F501119237
:104980008A95E9F7F12CA1C09313E5CFE110E3CFAD
:10499000F8018583C8010E94050A54C0EE2001F386
:1049A00020910A03822F82958F7090E0029734F253
:1049B00080910503909106039A8389831B82DD828F
:1049C000CC822E83CE010196B7CFE83CF105D0F51D
:1049D000FE2CEE2029F2621327C0931325C02091EC
:1049E0000A0320FD18C0822F82958F70482F50E057
:1049F0004115510581F0F80125834F30510541F0F3
:104A00008F5F982F9295907F822F8F70892B85834F
:104A1000C8010E94050A86E0F801A5E0B3E0019014
:104A20000D928A95E1F751C0C8010E94AB23811114
:104A300085CF80910A03816080930A03C8010E9498
:104A4000050A43C086E0F50111928A95E9F73DC059
:104A5000EE2009F485CFC8010E94AB23F82E8823ED
:104A600009F47ECF86E0F801A5E0B3E001900D9255
:104A70008A95E1F780910503909106030E948C23AB
:104A80000E94C72222C03D872E878D859E850E9469
:104A90008C23292F22952F70223028F49F7039F013
:104AA000811105C00BC0243028F49F7049F4805E4A
:104AB000883020F0C8010E94050A9F2CF92C05C0FF
:104AC000F8019581907F99F7F9CF8F2D61960FB6F8
:104AD000F894DEBF0FBECDBFDF91CF911F910F9134
:104AE000FF90EF90DF90CF90BF90AF909F90089590
:104AF00028E0929F800D1124682F66956695669533
:104B0000982F977085E0689FB001112440E050E035
:104B100080E0FB01E40FF51FE352FD4F208130E000
:104B2000092E02C0369527950A94E2F721703327A3
:104B3000042E01C0220F0A94EAF7822B4F5F5F4FC9
:104B40004530510531F7089528E0929F800D1124DA
:104B5000E82FE695E695E695877051E001C0550F80
:104B60008A95EAF785E0E89FF0011124E352FD4FB2
:104B700020E030E070E04081CB01022E02C096952B
:104B800087950A94E2F7817081958427852384278D
:104B900081932F5F3F4F2530310569F7089560936A
:104BA0002702709328028093290290932A020C9482
:104BB000AF220F931F9341E050E060E070E004C02B
:104BC000440F551F661F771F8A95D2F74095509561
:104BD000609570958091270290912802A0912902FA
:104BE000B0912A028A019B01082319232A233B231F
:104BF000C901B8011F910F910C94CF2520913D035D
:104C00008095822380933D03982F977099F430E02C
:104C1000482F082E000C550B2417350759F090919A
:104C2000090292FD07C08595859585950E94D92535
:104C300010923D030895CF93C0910902C2FB9927BA
:104C400090F9981799F080FBC2F9C093090260911E
:104C5000080284E090E00E947A2E6C2F82E290E0BD
:104C60000E947A2E82E0CF910C94FE25CF91089578
:104C70000F931F9341E050E060E070E004C0440FE8
:104C8000551F661F771F8A95D2F780912702909152
:104C90002802A0912902B0912A028A019B01082BC7
:104CA000192B2A2B3B2BC901B8011F910F910C9492
:104CB000CF25609323027093240280932502909362
:104CC00026020C94AF221092400386E0E7EDF2E05A
:104CD000DF011D928A95E9F70C94AF22882321F019
:104CE0000E947B220C9482220895882339F09091AF
:104CF0004003892B809340030C94822208951F93D4
:104D0000CF93DF93182FEB010E940409209741F005
:104D10008FE99FE00197F1F700C000002197F6CFDF
:104D2000812FDF91CF911F910C94D308CF93DF9304
:104D3000C0916107D09162078A30B1F42091580385
:104D4000CE018B559340622F70E00E94492E281BA4
:104D5000822F66E00E94AE2EC82FC15008F48FC08B
:104D600080E20E949626F9CF8D30E9F4CB55D340EE
:104D700020915803622F70E0CE010E94492E281B1B
:104D8000822F9E01280F311D2115344018F080E03C
:104D9000C0E0D0E0C80FD11DC55ADC4FD0936207E8
:104DA000C09361076CC096E0FE01ABE5B7E00190EF
:104DB0000D929A95E1F7803E30F086E0FE01119267
:104DC0008A95E9F70BC0F6E08F9FB00111246D5270
:104DD000744F46E050E0CE010E945D2EC091610705
:104DE000D091620746E050E0BE018BE597E00E945B
:104DF000D42E892B49F19E012B553340A90186E021
:104E0000569547958A95E1F781E090E0BC0102C094
:104E1000660F771F4A95E2F74091590350915A0364
:104E2000462B572B2B5F3F4F66E0369527956A95AB
:104E3000E1F702C0880F991F2A95E2F7842B952B82
:104E400090935A03809359039E0125553340409116
:104E50005803642F70E0C9010E94492E481B463058
:104E600010F4240F311D211584E0380710F020E0E4
:104E700030E0255A3C4F3093620720936107DF9161
:104E8000CF910895CF93DF93EC01FE0184918823A5
:104E900021F00E9496262196F8CFDF91CF910895B8
:104EA000EF92FF920F931F93CF93DF93EC017B015F
:104EB00064E670E088E70E941E2B8C01EC0EFD1E5C
:104EC000CE15DF0561F017FD0AC0FE01849164E68E
:104ED00070E00E949F2B8C012196892B89F30E9400
:104EE000232CC801DF91CF911F910F91FF90EF907C
:104EF0000895EF92FF920F931F93CF93DF937C015E
:104F00008B010E94EB1C811119C0E70101151105ED
:104F1000A1F08091E80085FD0AC08091E8008E77BD
:104F20008093E8000E94EB1C882381F307C08991DD
:104F30008093F10001501109E9CF80E0DF91CF911A
:104F40001F910F91FF90EF9008951F93CF93DF93E0
:104F5000CDB7DEB7AA970FB6F894DEBF0FBECDBFB0
:104F6000E0E5F3E088E593E02091F10021938E17CE
:104F70009F07D1F780915103833009F461C030F469
:104F8000813071F0823009F49BC0B2C08A3009F4DC
:104F900087C08B3009F46CC0893009F0A9C020C0EB
:104FA00080915003813A09F0A3C08091E800877F87
:104FB0008093E8008091540390915503892B21F44C
:104FC00068E084E493E003C060E080E090E070E09B
:104FD0000E94AA1E8091E8008B778093E80088C029
:104FE00080915003813209F083C0809154039091E5
:104FF0005503029708F07CC08091E800877F80937A
:10500000E8008091E80082FD05C080914E03811187
:10501000F8CF6EC02091F3008091F20090E0922BC7
:10502000029731F48091F100813011F0863021F443
:105030008091F100809343038091E8008B7754C006
:1050400080915003813A09F053C0809154039091AC
:105050005503892B09F04CC08091E800877F80932D
:10506000E8008091E80080FFFCCF8091610137C0AB
:10507000809150038132E1F5809154039091550362
:10508000892BB1F58091E800877F8093E8000E942A
:105090001E1D80915203809361010E94632628C0E7
:1050A00080915003813221F58091E800877F8093C1
:1050B000E8000E941E1D809153038093420318C094
:1050C00080915003813AA1F48091E800877F80931A
:1050D000E8008091E80080FFFCCF8091420380933C
:1050E000F1008091E8008E778093E8000E941E1DF9
:1050F0008091E80083FFCEC18091500390915103CD
:10510000492F50E04A30510508F0C4C1FA01E9586E
:10511000FF4F0C94CE2E803821F0823809F0BAC1AE
:1051200008C080914C0390914D03992389F08260CF
:105130000FC0809154038F70873008F0ABC180930B
:10514000E9008091EB0085FB882780F91092E90047
:105150009091E800977F9093E8008093F10010927F
:10516000F10065C1282F2D7F09F094C1882319F023
:10517000823061F08FC180915203813009F08AC181
:10518000933009F080E080934D032EC0809152034C
:1051900081112AC0809154038F702FEF280F263081
:1051A00008F078C18093E9002091EB0020FF1CC03B
:1051B000933021F48091EB00806214C09091EB0059
:1051C00090619093EB0021E030E0A90102C0440F10
:1051D000551F8A95E2F74093EA001092EA00809109
:1051E000EB0088608093EB001092E9008091E8006A
:1051F000877F20C181114EC1109152031F7780918A
:10520000E3008078812B8093E3008091E800877F22
:105210008093E8000E941E1D8091E80080FFFCCF73
:105220008091E30080688093E300111102C082E066
:1052300001C083E080934E032DC18058823008F076
:1052400029C180915203909153038C3D53E09507FF
:1052500079F583E08A838AE289834FB7F894DE0187
:10526000139620E03EE051E2E32FF0E05093570028
:10527000E49120FF03C0E295EF703F5FEF708E2F47
:1052800090E0EA3010F0C79601C0C0968D939D93D0
:105290002F5F243149F74FBF8091E800877F8093CB
:1052A000E8006AE270E0CE0101960E94AA1EAEC03C
:1052B0004091540350915503292F33272330310552
:1052C000A9F068F42130310509F4F3C0223031052A
:1052D00009F0E0C08BE390E0E2E6FBE044C021325D
:1052E000310521F12232310571F1D4C09927813085
:1052F0009105A1F058F0029709F0CCC0EFEAFBE06D
:10530000E4918E2F90E0EFEAFBE02AC0EFECFBE0A7
:10531000E4918E2F90E0EFECFBE022C0EDEBFBE0A0
:10532000E4918E2F90E0EDEBFBE01AC041155105A2
:1053300009F4C4C04130510509F0ACC089E090E0E7
:10534000EDE8FBE010C04115510509F4BCC0413047
:10535000510509F09FC082E390E0E0EFFAE003C05E
:10536000009709F497C02091E800277F2093E80078
:1053700020915603309157038217930708F49C013C
:1053800040E02115310589F180914E03882309F40D
:105390003DC08530D9F18091E80083FD37C0809110
:1053A000E80082FD2FC08091E80080FFEACF4091A5
:1053B000F3008091F20090E0942B2115310559F013
:1053C0008830910540F444914093F100319621508A
:1053D00031090196F2CF41E0089709F040E0809151
:1053E000E8008E778093E800CCCF4111CDCF0AC082
:1053F00080914E03882351F0853041F08091E80080
:1054000083FD04C08091E80082FFF2CF8091E80024
:105410008B778093E8003EC08038E1F58091E8000A
:10542000877F8093E80080914F038093F100809103
:10543000E8008E778093E8000E941E1D2BC081112A
:1054400029C080915203909153039927029714F534
:105450008091E800877F8093E800109152031093B9
:105460004F030E941E1D111106C08091E30087FDAD
:1054700002C081E001C084E080934E0342E061EC11
:1054800081E00E943D1D42E261EC82E00E943D1DF0
:1054900080914E038091E80083FF1AC08091E8005C
:1054A000877F8093E8008091EB0080628093EB001F
:1054B0000FC082E190E0EDE9FBE055CF89E090E09C
:1054C000E4E7FBE050CF80E490E0E2E2FBE04BCF8A
:1054D000AA960FB6F894DEBF0FBECDBFDF91CF9175
:1054E0001F910895E8EBF2E0438121E1421B08F4AB
:1054F00040E021E0628181810C940B21E8EBF2E035
:10550000438121E1420F08F44FEF21E06281818164
:105510000C940B21E8EBF2E0628121E1621B08F4BC
:1055200060E021E0438181810C940B21E8EBF2E003
:10553000628121E1620F08F46FEF21E043818181F4
:105540000C940B21E8EBF2E0818121E04381628140
:1055500088500C940B21E8EBF2E0818121E043813B
:105560006281885F0C940B218091B802982F9695E8
:10557000913021F0817082608093B8020895CF92BB
:10558000DF92EF92FF926B017C010E94B42AB70177
:10559000A60188E090E0FF90EF90DF90CF900C9410
:1055A0008C2E8091B80280FF1EC081708260809333
:1055B000B80280917B02816080937B02662351F068
:1055C0006091B8027091B9028091BA029091BB02C9
:1055D0000E94BF2A20E04091BB026091BA028091F4
:1055E000B9020C940B2108958091B80286958150E0
:1055F00009F481E061E00C94D12A61E081E00C942F
:10560000D12AE8EBF2E083E0808311828FEF82837E
:1056100083831482A9E7B2E012968C91129783607B
:1056200012968C9360817181828193810C94BF2A40
:105630001092B9008CE08093B80008959F92AF92C9
:10564000BF92CF92DF92EF92FF920F931F93CF936F
:10565000DF93B82EEB010E94491F6C01C431D105C4
:1056600058F0CF3F8FEFD80759F0CE0164E170E0DA
:105670000E94492E7B0107C0EE24E394F12C03C065
:1056800025E0E22EF12C84E8A82E94EA992E1092BF
:10569000BC009092BC000E94491F8C018091BC000C
:1056A00087FD08C00E94491F801B910B8E159F0526
:1056B000A8F32AC08091B900887F883041F080919A
:1056C000B900887F803119F00FEF1FEF1FC0B09233
:1056D000BB00A092BC000E94491F8C018091BC00BD
:1056E00087FD08C00E94491F801B910B8E159F05E6
:1056F000A8F30AC08091B900887F883111F0803406
:1057000019F700E010E00EC00EEF1FEFCF3F8FEF54
:10571000D80709F4BCCFC6010E942E1F8C179D0725
:1057200008F4B5CFC801DF91CF911F910F91FF9081
:10573000EF90DF90CF90BF90AF909F9008950F9320
:105740001F93CF93DF93EB018093BB0084E880939A
:10575000BC000E94491F8C018091BC0087FD0EC0D7
:10576000CF3F8FEFD807C1F30E94491F801B910BD9
:105770008C179D0788F38EEF9FEF0CC02091B90026
:10578000287F81E090E0283211F480E090E091954C
:1057900081959109DF91CF911F910F910895CF923B
:1057A000DF92EF92FF920F931F93CF93DF936B01E2
:1057B0008A017901B9010E941E2BE6010C0D1D1D05
:1057C000C017D10761F424E92093BC00DF91CF9189
:1057D0001F910F91FF90EF90DF90CF90089597FD6C
:1057E000F2CFB70189910E949F2BEACFCF92DF922F
:1057F000EF92FF920F931F93CF93DF93C62F6A010F
:105800007901B8010E941E2B97FD11C0B8018C2FA1
:105810000E949F2BE601EC0CFD1CCE15DF0539F034
:1058200097FD05C0B80189910E949F2BF6CF24E90E
:105830002093BC00DF91CF911F910F91FF90EF90CB
:10584000DF90CF90089584E98093BC0008958EE1A5
:105850004A9B02C08150E1F74A9BFECF08955A98B7
:1058600080E28A95F1F75A9A0895FC012AE02A9578
:10587000F1F728E090E080E031E040E14A95F1F76F
:10588000880F4A9B02C08160932700C0000040E15E
:105890004A95F1F7215089F720E12A95F1F729B1CE
:1058A00000C0000030E13A95F1F722FB222720F9F1
:1058B00092272081920F90830895EF92FF920F9389
:1058C0001F93CF93DF931F92CDB7DEB719828C0160
:1058D0007C01E60EF11C0E151F0551F00E94272CCD
:1058E000CE0101960E94352CF80181938F01F3CFF0
:1058F00081E09981911180E00F90DF91CF911F910C
:105900000F91FF90EF900895529A5A9A08955298E5
:105910005A9AEA9AE9E6F0E080818F7C80830895C4
:10592000615091E001C0990F6A95EAF720E031E0FB
:10593000992361F0492F482319F05A9A232701C06F
:105940005A9840E24A95F1F79695F2CF222311F04A
:105950005A9A01C05A9880E28A95F1F75A980895A8
:10596000FF920F931F93CF93DF93EC018C01060FEF
:10597000111DC017D10741F0F9900E942F2C68E04B
:105980008F2D0E94902CF5CFDF91CF911F910F9119
:10599000FF9008951F920F920FB60F921124EF926D
:1059A000FF920F931F932F933F934F935F936F93A8
:1059B0007F938F939F93AF93BF93EF93FF93CF9377
:1059C000DF931F92CDB7DEB719820E94272CCE013C
:1059D00001960E94352CA82FA695A695A6959A2FDC
:1059E000969595702A2F2570920F292F23709695E2
:1059F0009695920F877089137CC08981811179C037
:105A0000A83008F076C080E18A95F1F75A9A529A48
:105A1000B2E0BA95F1F700C05A98EA2EF12CEAE00C
:105A2000AE9FD0011124A050BF4F1896ED91FC916C
:105A300019973097B1F06091930170919401169687
:105A40002D913C911797260F371F13968D919C919E
:105A50001497680F791F15964C91159712968C9193
:105A600009958AE08E9DF0018F9DF00D1124E05084
:105A7000FF4F6581662351F08091930190919401CD
:105A800026813781820F931F0E94B02C0E942F2CF9
:105A9000F0E1FA95F1F75A9852985A9A80E18A956E
:105AA000F1F78AE08E9D80018F9D100D112400502A
:105AB0001F4FD80112966C911297662399F080912E
:105AC00093019091940113962D913C911497820F1C
:105AD000931F0E945D2CD801ED91FC91811105C0AE
